{
  "_format": "hh-sol-artifact-1",
  "contractName": "Domains",
  "sourceName": "contracts/Domains.sol",
  "abi": [
    {
      "inputs": [
        {
          "internalType": "string",
          "name": "_tld",
          "type": "string"
        }
      ],
      "stateMutability": "payable",
      "type": "constructor"
    },
    {
      "inputs": [],
      "name": "AlreadyRegistered",
      "type": "error"
    },
    {
      "inputs": [
        {
          "internalType": "string",
          "name": "name",
          "type": "string"
        }
      ],
      "name": "InvalidName",
      "type": "error"
    },
    {
      "inputs": [],
      "name": "Unauthorized",
      "type": "error"
    },
    {
      "anonymous": false,
      "inputs": [
        {
          "indexed": true,
          "internalType": "address",
          "name": "owner",
          "type": "address"
        },
        {
          "indexed": true,
          "internalType": "address",
          "name": "approved",
          "type": "address"
        },
        {
          "indexed": true,
          "internalType": "uint256",
          "name": "tokenId",
          "type": "uint256"
        }
      ],
      "name": "Approval",
      "type": "event"
    },
    {
      "anonymous": false,
      "inputs": [
        {
          "indexed": true,
          "internalType": "address",
          "name": "owner",
          "type": "address"
        },
        {
          "indexed": true,
          "internalType": "address",
          "name": "operator",
          "type": "address"
        },
        {
          "indexed": false,
          "internalType": "bool",
          "name": "approved",
          "type": "bool"
        }
      ],
      "name": "ApprovalForAll",
      "type": "event"
    },
    {
      "anonymous": false,
      "inputs": [
        {
          "indexed": false,
          "internalType": "address",
          "name": "_from",
          "type": "address"
        },
        {
          "indexed": false,
          "internalType": "address",
          "name": "_to",
          "type": "address"
        },
        {
          "indexed": false,
          "internalType": "uint256",
          "name": "_amount",
          "type": "uint256"
        }
      ],
      "name": "NewDonatation",
      "type": "event"
    },
    {
      "anonymous": false,
      "inputs": [
        {
          "indexed": false,
          "internalType": "address",
          "name": "_from",
          "type": "address"
        },
        {
          "indexed": false,
          "internalType": "string",
          "name": "_domain",
          "type": "string"
        },
        {
          "indexed": false,
          "internalType": "uint256",
          "name": "_amount",
          "type": "uint256"
        }
      ],
      "name": "NewRegisteredDomain",
      "type": "event"
    },
    {
      "anonymous": false,
      "inputs": [
        {
          "indexed": true,
          "internalType": "address",
          "name": "previousOwner",
          "type": "address"
        },
        {
          "indexed": true,
          "internalType": "address",
          "name": "newOwner",
          "type": "address"
        }
      ],
      "name": "OwnershipTransferred",
      "type": "event"
    },
    {
      "anonymous": false,
      "inputs": [
        {
          "indexed": true,
          "internalType": "address",
          "name": "from",
          "type": "address"
        },
        {
          "indexed": true,
          "internalType": "address",
          "name": "to",
          "type": "address"
        },
        {
          "indexed": true,
          "internalType": "uint256",
          "name": "tokenId",
          "type": "uint256"
        }
      ],
      "name": "Transfer",
      "type": "event"
    },
    {
      "inputs": [
        {
          "internalType": "string",
          "name": "name",
          "type": "string"
        }
      ],
      "name": "ValidHandle",
      "outputs": [
        {
          "internalType": "bool",
          "name": "",
          "type": "bool"
        }
      ],
      "stateMutability": "view",
      "type": "function"
    },
    {
      "inputs": [
        {
          "internalType": "string",
          "name": "handle",
          "type": "string"
        },
        {
          "internalType": "string",
          "name": "value",
          "type": "string"
        },
        {
          "internalType": "string",
          "name": "key",
          "type": "string"
        }
      ],
      "name": "addLink",
      "outputs": [],
      "stateMutability": "nonpayable",
      "type": "function"
    },
    {
      "inputs": [],
      "name": "amountTransacted",
      "outputs": [
        {
          "internalType": "uint256",
          "name": "",
          "type": "uint256"
        }
      ],
      "stateMutability": "view",
      "type": "function"
    },
    {
      "inputs": [
        {
          "internalType": "address",
          "name": "to",
          "type": "address"
        },
        {
          "internalType": "uint256",
          "name": "tokenId",
          "type": "uint256"
        }
      ],
      "name": "approve",
      "outputs": [],
      "stateMutability": "nonpayable",
      "type": "function"
    },
    {
      "inputs": [
        {
          "internalType": "address",
          "name": "owner",
          "type": "address"
        }
      ],
      "name": "balanceOf",
      "outputs": [
        {
          "internalType": "uint256",
          "name": "",
          "type": "uint256"
        }
      ],
      "stateMutability": "view",
      "type": "function"
    },
    {
      "inputs": [],
      "name": "basicDonation",
      "outputs": [
        {
          "internalType": "uint256",
          "name": "",
          "type": "uint256"
        }
      ],
      "stateMutability": "view",
      "type": "function"
    },
    {
      "inputs": [
        {
          "internalType": "address",
          "name": "",
          "type": "address"
        }
      ],
      "name": "countDonations",
      "outputs": [
        {
          "internalType": "uint256",
          "name": "",
          "type": "uint256"
        }
      ],
      "stateMutability": "view",
      "type": "function"
    },
    {
      "inputs": [
        {
          "internalType": "string",
          "name": "",
          "type": "string"
        }
      ],
      "name": "domains",
      "outputs": [
        {
          "internalType": "address",
          "name": "",
          "type": "address"
        }
      ],
      "stateMutability": "view",
      "type": "function"
    },
    {
      "inputs": [
        {
          "internalType": "address payable",
          "name": "_to",
          "type": "address"
        }
      ],
      "name": "donate",
      "outputs": [],
      "stateMutability": "payable",
      "type": "function"
    },
    {
      "inputs": [],
      "name": "fee",
      "outputs": [
        {
          "internalType": "uint256",
          "name": "",
          "type": "uint256"
        }
      ],
      "stateMutability": "view",
      "type": "function"
    },
    {
      "inputs": [
        {
          "internalType": "string",
          "name": "name",
          "type": "string"
        }
      ],
      "name": "getAddress",
      "outputs": [
        {
          "internalType": "address",
          "name": "",
          "type": "address"
        }
      ],
      "stateMutability": "view",
      "type": "function"
    },
    {
      "inputs": [],
      "name": "getAllNames",
      "outputs": [
        {
          "internalType": "string[]",
          "name": "",
          "type": "string[]"
        }
      ],
      "stateMutability": "view",
      "type": "function"
    },
    {
      "inputs": [
        {
          "internalType": "uint256",
          "name": "tokenId",
          "type": "uint256"
        }
      ],
      "name": "getApproved",
      "outputs": [
        {
          "internalType": "address",
          "name": "",
          "type": "address"
        }
      ],
      "stateMutability": "view",
      "type": "function"
    },
    {
      "inputs": [
        {
          "internalType": "string",
          "name": "handle",
          "type": "string"
        }
      ],
      "name": "getLinks",
      "outputs": [
        {
          "components": [
            {
              "internalType": "string",
              "name": "value",
              "type": "string"
            },
            {
              "internalType": "string",
              "name": "key",
              "type": "string"
            }
          ],
          "internalType": "struct Links.Link[]",
          "name": "",
          "type": "tuple[]"
        }
      ],
      "stateMutability": "view",
      "type": "function"
    },
    {
      "inputs": [
        {
          "internalType": "string",
          "name": "name",
          "type": "string"
        }
      ],
      "name": "getRecord",
      "outputs": [
        {
          "internalType": "string",
          "name": "",
          "type": "string"
        }
      ],
      "stateMutability": "view",
      "type": "function"
    },
    {
      "inputs": [
        {
          "internalType": "address",
          "name": "_address",
          "type": "address"
        }
      ],
      "name": "getTotalDonationsByAddress",
      "outputs": [
        {
          "internalType": "uint256",
          "name": "",
          "type": "uint256"
        }
      ],
      "stateMutability": "view",
      "type": "function"
    },
    {
      "inputs": [
        {
          "internalType": "address",
          "name": "owner",
          "type": "address"
        },
        {
          "internalType": "address",
          "name": "operator",
          "type": "address"
        }
      ],
      "name": "isApprovedForAll",
      "outputs": [
        {
          "internalType": "bool",
          "name": "",
          "type": "bool"
        }
      ],
      "stateMutability": "view",
      "type": "function"
    },
    {
      "inputs": [],
      "name": "name",
      "outputs": [
        {
          "internalType": "string",
          "name": "",
          "type": "string"
        }
      ],
      "stateMutability": "view",
      "type": "function"
    },
    {
      "inputs": [
        {
          "internalType": "uint256",
          "name": "",
          "type": "uint256"
        }
      ],
      "name": "names",
      "outputs": [
        {
          "internalType": "string",
          "name": "",
          "type": "string"
        }
      ],
      "stateMutability": "view",
      "type": "function"
    },
    {
      "inputs": [],
      "name": "owner",
      "outputs": [
        {
          "internalType": "address",
          "name": "",
          "type": "address"
        }
      ],
      "stateMutability": "view",
      "type": "function"
    },
    {
      "inputs": [
        {
          "internalType": "uint256",
          "name": "tokenId",
          "type": "uint256"
        }
      ],
      "name": "ownerOf",
      "outputs": [
        {
          "internalType": "address",
          "name": "",
          "type": "address"
        }
      ],
      "stateMutability": "view",
      "type": "function"
    },
    {
      "inputs": [
        {
          "internalType": "string",
          "name": "name",
          "type": "string"
        }
      ],
      "name": "price",
      "outputs": [
        {
          "internalType": "uint256",
          "name": "",
          "type": "uint256"
        }
      ],
      "stateMutability": "pure",
      "type": "function"
    },
    {
      "inputs": [
        {
          "internalType": "string",
          "name": "",
          "type": "string"
        }
      ],
      "name": "records",
      "outputs": [
        {
          "internalType": "string",
          "name": "",
          "type": "string"
        }
      ],
      "stateMutability": "view",
      "type": "function"
    },
    {
      "inputs": [
        {
          "internalType": "string",
          "name": "name",
          "type": "string"
        }
      ],
      "name": "register",
      "outputs": [],
      "stateMutability": "payable",
      "type": "function"
    },
    {
      "inputs": [],
      "name": "renounceOwnership",
      "outputs": [],
      "stateMutability": "nonpayable",
      "type": "function"
    },
    {
      "inputs": [
        {
          "internalType": "address",
          "name": "from",
          "type": "address"
        },
        {
          "internalType": "address",
          "name": "to",
          "type": "address"
        },
        {
          "internalType": "uint256",
          "name": "tokenId",
          "type": "uint256"
        }
      ],
      "name": "safeTransferFrom",
      "outputs": [],
      "stateMutability": "nonpayable",
      "type": "function"
    },
    {
      "inputs": [
        {
          "internalType": "address",
          "name": "from",
          "type": "address"
        },
        {
          "internalType": "address",
          "name": "to",
          "type": "address"
        },
        {
          "internalType": "uint256",
          "name": "tokenId",
          "type": "uint256"
        },
        {
          "internalType": "bytes",
          "name": "data",
          "type": "bytes"
        }
      ],
      "name": "safeTransferFrom",
      "outputs": [],
      "stateMutability": "nonpayable",
      "type": "function"
    },
    {
      "inputs": [
        {
          "internalType": "address",
          "name": "operator",
          "type": "address"
        },
        {
          "internalType": "bool",
          "name": "approved",
          "type": "bool"
        }
      ],
      "name": "setApprovalForAll",
      "outputs": [],
      "stateMutability": "nonpayable",
      "type": "function"
    },
    {
      "inputs": [
        {
          "internalType": "uint256",
          "name": "_basicDonation",
          "type": "uint256"
        }
      ],
      "name": "setBasicDonation",
      "outputs": [],
      "stateMutability": "nonpayable",
      "type": "function"
    },
    {
      "inputs": [
        {
          "internalType": "uint256",
          "name": "_newFee",
          "type": "uint256"
        }
      ],
      "name": "setFee",
      "outputs": [],
      "stateMutability": "nonpayable",
      "type": "function"
    },
    {
      "inputs": [
        {
          "internalType": "string",
          "name": "name",
          "type": "string"
        },
        {
          "internalType": "string",
          "name": "record",
          "type": "string"
        }
      ],
      "name": "setRecord",
      "outputs": [],
      "stateMutability": "nonpayable",
      "type": "function"
    },
    {
      "inputs": [
        {
          "internalType": "bytes4",
          "name": "interfaceId",
          "type": "bytes4"
        }
      ],
      "name": "supportsInterface",
      "outputs": [
        {
          "internalType": "bool",
          "name": "",
          "type": "bool"
        }
      ],
      "stateMutability": "view",
      "type": "function"
    },
    {
      "inputs": [],
      "name": "symbol",
      "outputs": [
        {
          "internalType": "string",
          "name": "",
          "type": "string"
        }
      ],
      "stateMutability": "view",
      "type": "function"
    },
    {
      "inputs": [],
      "name": "tld",
      "outputs": [
        {
          "internalType": "string",
          "name": "",
          "type": "string"
        }
      ],
      "stateMutability": "view",
      "type": "function"
    },
    {
      "inputs": [
        {
          "internalType": "uint256",
          "name": "tokenId",
          "type": "uint256"
        }
      ],
      "name": "tokenURI",
      "outputs": [
        {
          "internalType": "string",
          "name": "",
          "type": "string"
        }
      ],
      "stateMutability": "view",
      "type": "function"
    },
    {
      "inputs": [],
      "name": "totalCommissions",
      "outputs": [
        {
          "internalType": "uint256",
          "name": "",
          "type": "uint256"
        }
      ],
      "stateMutability": "view",
      "type": "function"
    },
    {
      "inputs": [],
      "name": "totalDonations",
      "outputs": [
        {
          "internalType": "uint256",
          "name": "",
          "type": "uint256"
        }
      ],
      "stateMutability": "view",
      "type": "function"
    },
    {
      "inputs": [],
      "name": "totalProfiles",
      "outputs": [
        {
          "internalType": "uint256",
          "name": "",
          "type": "uint256"
        }
      ],
      "stateMutability": "view",
      "type": "function"
    },
    {
      "inputs": [
        {
          "internalType": "address",
          "name": "from",
          "type": "address"
        },
        {
          "internalType": "address",
          "name": "to",
          "type": "address"
        },
        {
          "internalType": "uint256",
          "name": "tokenId",
          "type": "uint256"
        }
      ],
      "name": "transferFrom",
      "outputs": [],
      "stateMutability": "nonpayable",
      "type": "function"
    },
    {
      "inputs": [
        {
          "internalType": "address",
          "name": "newOwner",
          "type": "address"
        }
      ],
      "name": "transferOwnership",
      "outputs": [],
      "stateMutability": "nonpayable",
      "type": "function"
    },
    {
      "inputs": [
        {
          "internalType": "string",
          "name": "name",
          "type": "string"
        }
      ],
      "name": "valid",
      "outputs": [
        {
          "internalType": "bool",
          "name": "",
          "type": "bool"
        }
      ],
      "stateMutability": "pure",
      "type": "function"
    },
    {
      "inputs": [],
      "name": "withdraw",
      "outputs": [],
      "stateMutability": "nonpayable",
      "type": "function"
    }
  ],
  "bytecode": "0x60806040526005600955662e2f6e5e148000600a556000600b556000600c556000600d55604051806108a0016040528061086b81526020016200603861086b9139601290805190602001906200005792919062000399565b506040518060400160405280600d81526020017f3c2f746578743e3c2f7376673e0000000000000000000000000000000000000081525060139080519060200190620000a592919062000399565b506000601755604051620068a3380380620068a38339818101604052810190620000d09190620005e6565b6040518060400160405280600681526020017f4c696e6b4d6500000000000000000000000000000000000000000000000000008152506040518060400160405280600381526020017f4c4d45000000000000000000000000000000000000000000000000000000000081525081600090805190602001906200015492919062000399565b5080600190805190602001906200016d92919062000399565b5050506200019062000184620001fc60201b60201c565b6200020460201b60201c565b8060119080519060200190620001a892919062000399565b50620001f56040518060400160405280600b81526020017f2573206465706c6f79656400000000000000000000000000000000000000000081525082620002ca60201b620023d11760201c565b5062000734565b600033905090565b6000600760009054906101000a900473ffffffffffffffffffffffffffffffffffffffff16905081600760006101000a81548173ffffffffffffffffffffffffffffffffffffffff021916908373ffffffffffffffffffffffffffffffffffffffff1602179055508173ffffffffffffffffffffffffffffffffffffffff168173ffffffffffffffffffffffffffffffffffffffff167f8be0079c531659141344cd1fd0a4f28419497f9722a3daafe3b4186f6b6457e060405160405180910390a35050565b6200036c8282604051602401620002e392919062000694565b6040516020818303038152906040527f4b5c4277000000000000000000000000000000000000000000000000000000007bffffffffffffffffffffffffffffffffffffffffffffffffffffffff19166020820180517bffffffffffffffffffffffffffffffffffffffffffffffffffffffff83818316178352505050506200037060201b60201c565b5050565b60008151905060006a636f6e736f6c652e6c6f679050602083016000808483855afa5050505050565b828054620003a790620006fe565b90600052602060002090601f016020900481019282620003cb576000855562000417565b82601f10620003e657805160ff191683800117855562000417565b8280016001018555821562000417579182015b8281111562000416578251825591602001919060010190620003f9565b5b5090506200042691906200042a565b5090565b5b80821115620004455760008160009055506001016200042b565b5090565b6000604051905090565b600080fd5b600080fd5b600080fd5b600080fd5b6000601f19601f8301169050919050565b7f4e487b7100000000000000000000000000000000000000000000000000000000600052604160045260246000fd5b620004b28262000467565b810181811067ffffffffffffffff82111715620004d457620004d362000478565b5b80604052505050565b6000620004e962000449565b9050620004f78282620004a7565b919050565b600067ffffffffffffffff8211156200051a576200051962000478565b5b620005258262000467565b9050602081019050919050565b60005b838110156200055257808201518184015260208101905062000535565b8381111562000562576000848401525b50505050565b60006200057f6200057984620004fc565b620004dd565b9050828152602081018484840111156200059e576200059d62000462565b5b620005ab84828562000532565b509392505050565b600082601f830112620005cb57620005ca6200045d565b5b8151620005dd84826020860162000568565b91505092915050565b600060208284031215620005ff57620005fe62000453565b5b600082015167ffffffffffffffff81111562000620576200061f62000458565b5b6200062e84828501620005b3565b91505092915050565b600081519050919050565b600082825260208201905092915050565b6000620006608262000637565b6200066c818562000642565b93506200067e81856020860162000532565b620006898162000467565b840191505092915050565b60006040820190508181036000830152620006b0818562000653565b90508181036020830152620006c6818462000653565b90509392505050565b7f4e487b7100000000000000000000000000000000000000000000000000000000600052602260045260246000fd5b600060028204905060018216806200071757607f821691505b602082108114156200072e576200072d620006cf565b5b50919050565b6158f480620007446000396000f3fe6080604052600436106102505760003560e01c80638da5cb5b11610139578063c87b56dd116100b6578063df31db6c1161007a578063df31db6c14610914578063e985e9c514610951578063f2c298be1461098e578063f2fde38b146109aa578063fb825e5f146109d3578063fe2c6198146109fe57610250565b8063c87b56dd1461082b578063ca5c6c8614610868578063d2adbe7914610893578063ddca3f43146108be578063de2ed893146108e957610250565b8063ada98ff7116100fd578063ada98ff714610734578063b7210f8d1461075f578063b88d4fde1461079c578063bf40fac1146107c5578063c1880a981461080257610250565b80638da5cb5b1461063b57806395d89b41146106665780639791c097146106915780639bb04c6a146106ce578063a22cb4651461070b57610250565b80632d551432116101d257806361db45231161019657806361db45231461052d5780636352211e1461055657806369fe0e2d1461059357806370a08231146105bc578063715018a6146105f95780638792e3031461061057610250565b80632d551432146104485780633ccfd60b1461047357806342842e0e1461048a5780634622ab03146104b3578063541e771d146104f057610250565b806311dd88451161021957806311dd88451461033f57806323b872dd1461037c57806326449235146103a55780632ace1b6d146103e25780632d2889821461041f57610250565b8062362a951461025557806301ffc9a71461027157806306fdde03146102ae578063081812fc146102d9578063095ea7b314610316575b600080fd5b61026f600480360381019061026a9190613b44565b610a3b565b005b34801561027d57600080fd5b5061029860048036038101906102939190613bc9565b610bc4565b6040516102a59190613c11565b60405180910390f35b3480156102ba57600080fd5b506102c3610ca6565b6040516102d09190613cc5565b60405180910390f35b3480156102e557600080fd5b5061030060048036038101906102fb9190613d1d565b610d38565b60405161030d9190613d6b565b60405180910390f35b34801561032257600080fd5b5061033d60048036038101906103389190613db2565b610d7e565b005b34801561034b57600080fd5b5061036660048036038101906103619190613e57565b610e96565b6040516103739190613cc5565b60405180910390f35b34801561038857600080fd5b506103a3600480360381019061039e9190613ea4565b610f49565b005b3480156103b157600080fd5b506103cc60048036038101906103c79190614027565b610fa9565b6040516103d99190613d6b565b60405180910390f35b3480156103ee57600080fd5b5061040960048036038101906104049190614070565b610ff2565b60405161041691906140ac565b60405180910390f35b34801561042b57600080fd5b50610446600480360381019061044191906140c7565b61100a565b005b34801561045457600080fd5b5061045d6110a7565b60405161046a9190613cc5565b60405180910390f35b34801561047f57600080fd5b50610488611135565b005b34801561049657600080fd5b506104b160048036038101906104ac9190613ea4565b6111fe565b005b3480156104bf57600080fd5b506104da60048036038101906104d59190613d1d565b61121e565b6040516104e79190613cc5565b60405180910390f35b3480156104fc57600080fd5b5061051760048036038101906105129190614027565b6112be565b6040516105249190613cc5565b60405180910390f35b34801561053957600080fd5b50610554600480360381019061054f9190613d1d565b611374565b005b34801561056257600080fd5b5061057d60048036038101906105789190613d1d565b611386565b60405161058a9190613d6b565b60405180910390f35b34801561059f57600080fd5b506105ba60048036038101906105b59190613d1d565b61140d565b005b3480156105c857600080fd5b506105e360048036038101906105de9190614070565b61141f565b6040516105f091906140ac565b60405180910390f35b34801561060557600080fd5b5061060e6114d7565b005b34801561061c57600080fd5b506106256114eb565b60405161063291906140ac565b60405180910390f35b34801561064757600080fd5b506106506114f1565b60405161065d9190613d6b565b60405180910390f35b34801561067257600080fd5b5061067b61151b565b6040516106889190613cc5565b60405180910390f35b34801561069d57600080fd5b506106b860048036038101906106b39190613e57565b6115ad565b6040516106c59190613c11565b60405180910390f35b3480156106da57600080fd5b506106f560048036038101906106f09190613e57565b611661565b6040516107029190613c11565b60405180910390f35b34801561071757600080fd5b50610732600480360381019061072d919061419a565b6116ea565b005b34801561074057600080fd5b50610749611700565b60405161075691906140ac565b60405180910390f35b34801561076b57600080fd5b5061078660048036038101906107819190614027565b611706565b604051610793919061432a565b60405180910390f35b3480156107a857600080fd5b506107c360048036038101906107be91906143ed565b6118a7565b005b3480156107d157600080fd5b506107ec60048036038101906107e79190613e57565b611909565b6040516107f99190613d6b565b60405180910390f35b34801561080e57600080fd5b5061082960048036038101906108249190614470565b611954565b005b34801561083757600080fd5b50610852600480360381019061084d9190613d1d565b611a2f565b60405161085f9190613cc5565b60405180910390f35b34801561087457600080fd5b5061087d611b42565b60405161088a91906140ac565b60405180910390f35b34801561089f57600080fd5b506108a8611b48565b6040516108b591906140ac565b60405180910390f35b3480156108ca57600080fd5b506108d3611b4e565b6040516108e091906140ac565b60405180910390f35b3480156108f557600080fd5b506108fe611b54565b60405161090b91906140ac565b60405180910390f35b34801561092057600080fd5b5061093b60048036038101906109369190614070565b611b5a565b60405161094891906140ac565b60405180910390f35b34801561095d57600080fd5b50610978600480360381019061097391906144f1565b611ba3565b6040516109859190613c11565b60405180910390f35b6109a860048036038101906109a39190613e57565b611c37565b005b3480156109b657600080fd5b506109d160048036038101906109cc9190614070565b612107565b005b3480156109df57600080fd5b506109e861218b565b6040516109f591906145f3565b60405180910390f35b348015610a0a57600080fd5b50610a256004803603810190610a209190613e57565b61232b565b604051610a3291906140ac565b60405180910390f35b600a543411610a4957600080fd5b6000600954606434610a5b9190614673565b610a6591906146a4565b90508173ffffffffffffffffffffffffffffffffffffffff166108fc8234610a8d91906146fe565b9081150290604051600060405180830381858888f19350505050158015610ab8573d6000803e3d6000fd5b506001600e60008473ffffffffffffffffffffffffffffffffffffffff1673ffffffffffffffffffffffffffffffffffffffff16815260200190815260200160002054610b059190614732565b600e60008473ffffffffffffffffffffffffffffffffffffffff1673ffffffffffffffffffffffffffffffffffffffff168152602001908152602001600020819055506001600b54610b579190614732565b600b8190555080600d54610b6b9190614732565b600d8190555034600c54610b7f9190614732565b600c819055507ff32cc2e55a01e2a6804f643f4d269c54bfb1b6980f27bb6285c37f4ecd3356f9338334604051610bb8939291906147e7565b60405180910390a15050565b60007f80ac58cd000000000000000000000000000000000000000000000000000000007bffffffffffffffffffffffffffffffffffffffffffffffffffffffff1916827bffffffffffffffffffffffffffffffffffffffffffffffffffffffff19161480610c8f57507f5b5e139f000000000000000000000000000000000000000000000000000000007bffffffffffffffffffffffffffffffffffffffffffffffffffffffff1916827bffffffffffffffffffffffffffffffffffffffffffffffffffffffff1916145b80610c9f5750610c9e8261246d565b5b9050919050565b606060008054610cb59061484d565b80601f0160208091040260200160405190810160405280929190818152602001828054610ce19061484d565b8015610d2e5780601f10610d0357610100808354040283529160200191610d2e565b820191906000526020600020905b815481529060010190602001808311610d1157829003601f168201915b5050505050905090565b6000610d43826124d7565b6004600083815260200190815260200160002060009054906101000a900473ffffffffffffffffffffffffffffffffffffffff169050919050565b6000610d8982611386565b90508073ffffffffffffffffffffffffffffffffffffffff168373ffffffffffffffffffffffffffffffffffffffff161415610dfa576040517f08c379a0000000000000000000000000000000000000000000000000000000008152600401610df1906148f1565b60405180910390fd5b8073ffffffffffffffffffffffffffffffffffffffff16610e19612522565b73ffffffffffffffffffffffffffffffffffffffff161480610e485750610e4781610e42612522565b611ba3565b5b610e87576040517f08c379a0000000000000000000000000000000000000000000000000000000008152600401610e7e90614983565b60405180910390fd5b610e91838361252a565b505050565b606060158383604051610eaa9291906149d3565b90815260200160405180910390208054610ec39061484d565b80601f0160208091040260200160405190810160405280929190818152602001828054610eef9061484d565b8015610f3c5780601f10610f1157610100808354040283529160200191610f3c565b820191906000526020600020905b815481529060010190602001808311610f1f57829003601f168201915b5050505050905092915050565b610f5a610f54612522565b826125e3565b610f99576040517f08c379a0000000000000000000000000000000000000000000000000000000008152600401610f9090614a5e565b60405180910390fd5b610fa4838383612678565b505050565b6014818051602081018201805184825260208301602085012081835280955050505050506000915054906101000a900473ffffffffffffffffffffffffffffffffffffffff1681565b600e6020528060005260406000206000915090505481565b600f8360405161101a9190614aaf565b9081526020016040518091039020604051806040016040528084815260200183815250908060018154018082558091505060019003906000526020600020906002020160009091909190915060008201518160000190805190602001906110829291906139a9565b50602082015181600101908051906020019061109f9291906139a9565b505050505050565b601180546110b49061484d565b80601f01602080910402602001604051908101604052809291908181526020018280546110e09061484d565b801561112d5780601f106111025761010080835404028352916020019161112d565b820191906000526020600020905b81548152906001019060200180831161111057829003601f168201915b505050505081565b61113d612972565b600047905060003373ffffffffffffffffffffffffffffffffffffffff168260405161116890614af7565b60006040518083038185875af1925050503d80600081146111a5576040519150601f19603f3d011682016040523d82523d6000602084013e6111aa565b606091505b505090508080156111bb5750600082115b6111fa576040517f08c379a00000000000000000000000000000000000000000000000000000000081526004016111f190614b58565b60405180910390fd5b5050565b611219838383604051806020016040528060008152506118a7565b505050565b6016602052806000526040600020600091509050805461123d9061484d565b80601f01602080910402602001604051908101604052809291908181526020018280546112699061484d565b80156112b65780601f1061128b576101008083540402835291602001916112b6565b820191906000526020600020905b81548152906001019060200180831161129957829003601f168201915b505050505081565b60158180516020810182018051848252602083016020850120818352809550505050505060009150905080546112f39061484d565b80601f016020809104026020016040519081016040528092919081815260200182805461131f9061484d565b801561136c5780601f106113415761010080835404028352916020019161136c565b820191906000526020600020905b81548152906001019060200180831161134f57829003601f168201915b505050505081565b61137c612972565b80600a8190555050565b600080611392836129f0565b9050600073ffffffffffffffffffffffffffffffffffffffff168173ffffffffffffffffffffffffffffffffffffffff161415611404576040517f08c379a00000000000000000000000000000000000000000000000000000000081526004016113fb90614bc4565b60405180910390fd5b80915050919050565b611415612972565b8060098190555050565b60008073ffffffffffffffffffffffffffffffffffffffff168273ffffffffffffffffffffffffffffffffffffffff161415611490576040517f08c379a000000000000000000000000000000000000000000000000000000000815260040161148790614c56565b60405180910390fd5b600360008373ffffffffffffffffffffffffffffffffffffffff1673ffffffffffffffffffffffffffffffffffffffff168152602001908152602001600020549050919050565b6114df612972565b6114e96000612a2d565b565b600d5481565b6000600760009054906101000a900473ffffffffffffffffffffffffffffffffffffffff16905090565b60606001805461152a9061484d565b80601f01602080910402602001604051908101604052809291908181526020018280546115569061484d565b80156115a35780601f10611578576101008083540402835291602001916115a3565b820191906000526020600020905b81548152906001019060200180831161158657829003601f168201915b5050505050905090565b600060036115fe84848080601f016020809104026020016040519081016040528093929190818152602001838380828437600081840152601f19601f82011690508083019250505050505050612af3565b101580156116595750600a61165684848080601f016020809104026020016040519081016040528093929190818152602001838380828437600081840152601f19601f82011690508083019250505050505050612af3565b11155b905092915050565b60008073ffffffffffffffffffffffffffffffffffffffff166014848460405161168c9291906149d3565b908152602001604051809103902060009054906101000a900473ffffffffffffffffffffffffffffffffffffffff1673ffffffffffffffffffffffffffffffffffffffff16146116df57600090506116e4565b600190505b92915050565b6116fc6116f5612522565b8383612ca8565b5050565b600c5481565b6060600f826040516117189190614aaf565b9081526020016040518091039020805480602002602001604051908101604052809291908181526020016000905b8282101561189c57838290600052602060002090600202016040518060400160405290816000820180546117799061484d565b80601f01602080910402602001604051908101604052809291908181526020018280546117a59061484d565b80156117f25780601f106117c7576101008083540402835291602001916117f2565b820191906000526020600020905b8154815290600101906020018083116117d557829003601f168201915b5050505050815260200160018201805461180b9061484d565b80601f01602080910402602001604051908101604052809291908181526020018280546118379061484d565b80156118845780601f1061185957610100808354040283529160200191611884565b820191906000526020600020905b81548152906001019060200180831161186757829003601f168201915b50505050508152505081526020019060010190611746565b505050509050919050565b6118b86118b2612522565b836125e3565b6118f7576040517f08c379a00000000000000000000000000000000000000000000000000000000081526004016118ee90614a5e565b60405180910390fd5b61190384848484612e15565b50505050565b60006014838360405161191d9291906149d3565b908152602001604051809103902060009054906101000a900473ffffffffffffffffffffffffffffffffffffffff16905092915050565b601484846040516119669291906149d3565b908152602001604051809103902060009054906101000a900473ffffffffffffffffffffffffffffffffffffffff1673ffffffffffffffffffffffffffffffffffffffff163373ffffffffffffffffffffffffffffffffffffffff16146119f9576040517f82b4290000000000000000000000000000000000000000000000000000000000815260040160405180910390fd5b818160158686604051611a0d9291906149d3565b90815260200160405180910390209190611a28929190613a2f565b5050505050565b6060611a3a826124d7565b6000600660008481526020019081526020016000208054611a5a9061484d565b80601f0160208091040260200160405190810160405280929190818152602001828054611a869061484d565b8015611ad35780601f10611aa857610100808354040283529160200191611ad3565b820191906000526020600020905b815481529060010190602001808311611ab657829003601f168201915b505050505090506000611ae4612e71565b9050600081511415611afa578192505050611b3d565b600082511115611b2f578082604051602001611b17929190614c76565b60405160208183030381529060405292505050611b3d565b611b3884612e88565b925050505b919050565b600a5481565b60175481565b60095481565b600b5481565b6000600e60008373ffffffffffffffffffffffffffffffffffffffff1673ffffffffffffffffffffffffffffffffffffffff168152602001908152602001600020549050919050565b6000600560008473ffffffffffffffffffffffffffffffffffffffff1673ffffffffffffffffffffffffffffffffffffffff16815260200190815260200160002060008373ffffffffffffffffffffffffffffffffffffffff1673ffffffffffffffffffffffffffffffffffffffff16815260200190815260200160002060009054906101000a900460ff16905092915050565b600073ffffffffffffffffffffffffffffffffffffffff1660148383604051611c619291906149d3565b908152602001604051809103902060009054906101000a900473ffffffffffffffffffffffffffffffffffffffff1673ffffffffffffffffffffffffffffffffffffffff1614611cdd576040517f3a81d6fc00000000000000000000000000000000000000000000000000000000815260040160405180910390fd5b611ce782826115ad565b611d2a5781816040517f7f19f48d000000000000000000000000000000000000000000000000000000008152600401611d21929190614cc7565b60405180910390fd5b6000611d36838361232b565b905080341015611d7b576040517f08c379a0000000000000000000000000000000000000000000000000000000008152600401611d7290614d37565b60405180910390fd5b600083836011604051602001611d9393929190614e37565b604051602081830303815290604052905060006012826013604051602001611dbd93929190614e68565b60405160208183030381529060405290506000611dda6010612ef0565b90506000611e2b87878080601f016020809104026020016040519081016040528093929190818152602001838380828437600081840152601f19601f82011690508083019250505050505050612af3565b90506000611e3882612efe565b9050611f2c6040518060600160405280603181526020016158156031913989898080601f016020809104026020016040519081016040528093929190818152602001838380828437600081840152601f19601f8201169050808301925050505050505060118054611ea89061484d565b80601f0160208091040260200160405190810160405280929190818152602001828054611ed49061484d565b8015611f215780601f10611ef657610100808354040283529160200191611f21565b820191906000526020600020905b815481529060010190602001808311611f0457829003601f168201915b505050505086612fd6565b6000611f6286611f3b87613078565b84604051602001611f4e93929190615015565b604051602081830303815290604052613078565b9050600081604051602001611f7791906150be565b6040516020818303038152906040529050611fa96040518060600160405280603981526020016157dc603991396131dc565b611fe86040518060400160405280600e81526020017f46696e616c20746f6b656e555249000000000000000000000000000000000000815250826123d1565b612009604051806060016040528060398152602001615846603991396131dc565b6120133386613275565b61201d8582613293565b3360148b8b6040516120309291906149d3565b908152602001604051809103902060006101000a81548173ffffffffffffffffffffffffffffffffffffffff021916908373ffffffffffffffffffffffffffffffffffffffff160217905550898960166000888152602001908152602001600020919061209e929190613a2f565b506120a96010613307565b60016017546120b89190614732565b6017819055507fbf4bc096febed784d9fd66841a9ce78b4f61a53f9890776e188b2f8522223e34338b8b8b6040516120f394939291906150e0565b60405180910390a150505050505050505050565b61210f612972565b600073ffffffffffffffffffffffffffffffffffffffff168173ffffffffffffffffffffffffffffffffffffffff16141561217f576040517f08c379a000000000000000000000000000000000000000000000000000000000815260040161217690615192565b60405180910390fd5b61218881612a2d565b50565b606060006121996010612ef0565b67ffffffffffffffff8111156121b2576121b1613efc565b5b6040519080825280602002602001820160405280156121e557816020015b60608152602001906001900390816121d05790505b50905060005b6121f56010612ef0565b8110156123235760166000828152602001908152602001600020805461221a9061484d565b80601f01602080910402602001604051908101604052809291908181526020018280546122469061484d565b80156122935780601f1061226857610100808354040283529160200191612293565b820191906000526020600020905b81548152906001019060200180831161227657829003601f168201915b50505050508282815181106122ab576122aa6151b2565b5b60200260200101819052506123106040518060400160405280601781526020017f4e616d6520666f7220746f6b656e20256420697320257300000000000000000081525082848481518110612303576123026151b2565b5b602002602001015161331d565b808061231b906151e1565b9150506121eb565b508091505090565b60008061237b84848080601f016020809104026020016040519081016040528093929190818152602001838380828437600081840152601f19601f82011690508083019250505050505050612af3565b90506000811161238a57600080fd5b60038114156123a4576706f05b59d3b200009150506123cb565b60048114156123be57670429d069189e00009150506123cb565b67016345785d8a00009150505b92915050565b61246982826040516024016123e792919061522a565b6040516020818303038152906040527f4b5c4277000000000000000000000000000000000000000000000000000000007bffffffffffffffffffffffffffffffffffffffffffffffffffffffff19166020820180517bffffffffffffffffffffffffffffffffffffffffffffffffffffffff83818316178352505050506133bc565b5050565b60007f01ffc9a7000000000000000000000000000000000000000000000000000000007bffffffffffffffffffffffffffffffffffffffffffffffffffffffff1916827bffffffffffffffffffffffffffffffffffffffffffffffffffffffff1916149050919050565b6124e0816133e5565b61251f576040517f08c379a000000000000000000000000000000000000000000000000000000000815260040161251690614bc4565b60405180910390fd5b50565b600033905090565b816004600083815260200190815260200160002060006101000a81548173ffffffffffffffffffffffffffffffffffffffff021916908373ffffffffffffffffffffffffffffffffffffffff160217905550808273ffffffffffffffffffffffffffffffffffffffff1661259d83611386565b73ffffffffffffffffffffffffffffffffffffffff167f8c5be1e5ebec7d5bd14f71427d1e84f3dd0314c0f7b2291e5b200ac8c7c3b92560405160405180910390a45050565b6000806125ef83611386565b90508073ffffffffffffffffffffffffffffffffffffffff168473ffffffffffffffffffffffffffffffffffffffff16148061263157506126308185611ba3565b5b8061266f57508373ffffffffffffffffffffffffffffffffffffffff1661265784610d38565b73ffffffffffffffffffffffffffffffffffffffff16145b91505092915050565b8273ffffffffffffffffffffffffffffffffffffffff1661269882611386565b73ffffffffffffffffffffffffffffffffffffffff16146126ee576040517f08c379a00000000000000000000000000000000000000000000000000000000081526004016126e5906152d3565b60405180910390fd5b600073ffffffffffffffffffffffffffffffffffffffff168273ffffffffffffffffffffffffffffffffffffffff16141561275e576040517f08c379a000000000000000000000000000000000000000000000000000000000815260040161275590615365565b60405180910390fd5b61276b8383836001613426565b8273ffffffffffffffffffffffffffffffffffffffff1661278b82611386565b73ffffffffffffffffffffffffffffffffffffffff16146127e1576040517f08c379a00000000000000000000000000000000000000000000000000000000081526004016127d8906152d3565b60405180910390fd5b6004600082815260200190815260200160002060006101000a81549073ffffffffffffffffffffffffffffffffffffffff02191690556001600360008573ffffffffffffffffffffffffffffffffffffffff1673ffffffffffffffffffffffffffffffffffffffff168152602001908152602001600020600082825403925050819055506001600360008473ffffffffffffffffffffffffffffffffffffffff1673ffffffffffffffffffffffffffffffffffffffff16815260200190815260200160002060008282540192505081905550816002600083815260200190815260200160002060006101000a81548173ffffffffffffffffffffffffffffffffffffffff021916908373ffffffffffffffffffffffffffffffffffffffff160217905550808273ffffffffffffffffffffffffffffffffffffffff168473ffffffffffffffffffffffffffffffffffffffff167fddf252ad1be2c89b69c2b068fc378daa952ba7f163c4a11628f55a4df523b3ef60405160405180910390a461296d838383600161342c565b505050565b61297a612522565b73ffffffffffffffffffffffffffffffffffffffff166129986114f1565b73ffffffffffffffffffffffffffffffffffffffff16146129ee576040517f08c379a00000000000000000000000000000000000000000000000000000000081526004016129e5906153d1565b60405180910390fd5b565b60006002600083815260200190815260200160002060009054906101000a900473ffffffffffffffffffffffffffffffffffffffff169050919050565b6000600760009054906101000a900473ffffffffffffffffffffffffffffffffffffffff16905081600760006101000a81548173ffffffffffffffffffffffffffffffffffffffff021916908373ffffffffffffffffffffffffffffffffffffffff1602179055508173ffffffffffffffffffffffffffffffffffffffff168173ffffffffffffffffffffffffffffffffffffffff167f8be0079c531659141344cd1fd0a4f28419497f9722a3daafe3b4186f6b6457e060405160405180910390a35050565b60008060008084519050600092505b80821015612c9d576000858381518110612b1f57612b1e6151b2565b5b602001015160f81c60f81b9050608060f81b817effffffffffffffffffffffffffffffffffffffffffffffffffffffffffffff19161015612b6e57600183612b679190614732565b9250612c89565b60e060f81b817effffffffffffffffffffffffffffffffffffffffffffffffffffffffffffff19161015612bb057600283612ba99190614732565b9250612c88565b60f060f81b817effffffffffffffffffffffffffffffffffffffffffffffffffffffffffffff19161015612bf257600383612beb9190614732565b9250612c87565b60f8801b817effffffffffffffffffffffffffffffffffffffffffffffffffffffffffffff19161015612c3357600483612c2c9190614732565b9250612c86565b60fc60f81b817effffffffffffffffffffffffffffffffffffffffffffffffffffffffffffff19161015612c7557600583612c6e9190614732565b9250612c85565b600683612c829190614732565b92505b5b5b5b5b508280612c95906151e1565b935050612b02565b829350505050919050565b8173ffffffffffffffffffffffffffffffffffffffff168373ffffffffffffffffffffffffffffffffffffffff161415612d17576040517f08c379a0000000000000000000000000000000000000000000000000000000008152600401612d0e9061543d565b60405180910390fd5b80600560008573ffffffffffffffffffffffffffffffffffffffff1673ffffffffffffffffffffffffffffffffffffffff16815260200190815260200160002060008473ffffffffffffffffffffffffffffffffffffffff1673ffffffffffffffffffffffffffffffffffffffff16815260200190815260200160002060006101000a81548160ff0219169083151502179055508173ffffffffffffffffffffffffffffffffffffffff168373ffffffffffffffffffffffffffffffffffffffff167f17307eab39ab6107e8899845ad3d59bd9653f200f220920489ca2b5937696c3183604051612e089190613c11565b60405180910390a3505050565b612e20848484612678565b612e2c84848484613432565b612e6b576040517f08c379a0000000000000000000000000000000000000000000000000000000008152600401612e62906154cf565b60405180910390fd5b50505050565b606060405180602001604052806000815250905090565b6060612e93826124d7565b6000612e9d612e71565b90506000815111612ebd5760405180602001604052806000815250612ee8565b80612ec784612efe565b604051602001612ed8929190614c76565b6040516020818303038152906040525b915050919050565b600081600001549050919050565b606060006001612f0d846135ba565b01905060008167ffffffffffffffff811115612f2c57612f2b613efc565b5b6040519080825280601f01601f191660200182016040528015612f5e5781602001600182028036833780820191505090505b509050600082602001820190505b600115612fcb578080600190039150507f3031323334353637383961626364656600000000000000000000000000000000600a86061a8153600a8581612fb557612fb4614615565b5b0494506000851415612fc657612fcb565b612f6c565b819350505050919050565b61307284848484604051602401612ff094939291906154ef565b6040516020818303038152906040527f8eafb02b000000000000000000000000000000000000000000000000000000007bffffffffffffffffffffffffffffffffffffffffffffffffffffffff19166020820180517bffffffffffffffffffffffffffffffffffffffffffffffffffffffff83818316178352505050506133bc565b50505050565b606060008251141561309b576040518060200160405280600081525090506131d7565b600060405180606001604052806040815260200161587f60409139905060006003600285516130ca9190614732565b6130d49190614673565b60046130e091906146a4565b67ffffffffffffffff8111156130f9576130f8613efc565b5b6040519080825280601f01601f19166020018201604052801561312b5781602001600182028036833780820191505090505b509050600182016020820185865187015b80821015613197576003820191508151603f8160121c168501518453600184019350603f81600c1c168501518453600184019350603f8160061c168501518453600184019350603f811685015184536001840193505061313c565b50506003865106600181146131b357600281146131c6576131ce565b603d6001830353603d60028303536131ce565b603d60018303535b50505080925050505b919050565b613272816040516024016131f09190613cc5565b6040516020818303038152906040527f41304fac000000000000000000000000000000000000000000000000000000007bffffffffffffffffffffffffffffffffffffffffffffffffffffffff19166020820180517bffffffffffffffffffffffffffffffffffffffffffffffffffffffff83818316178352505050506133bc565b50565b61328f82826040518060200160405280600081525061370d565b5050565b61329c826133e5565b6132db576040517f08c379a00000000000000000000000000000000000000000000000000000000081526004016132d2906155bb565b60405180910390fd5b806006600084815260200190815260200160002090805190602001906133029291906139a9565b505050565b6001816000016000828254019250508190555050565b6133b7838383604051602401613335939291906155db565b6040516020818303038152906040527f5970e089000000000000000000000000000000000000000000000000000000007bffffffffffffffffffffffffffffffffffffffffffffffffffffffff19166020820180517bffffffffffffffffffffffffffffffffffffffffffffffffffffffff83818316178352505050506133bc565b505050565b60008151905060006a636f6e736f6c652e6c6f679050602083016000808483855afa5050505050565b60008073ffffffffffffffffffffffffffffffffffffffff16613407836129f0565b73ffffffffffffffffffffffffffffffffffffffff1614159050919050565b50505050565b50505050565b60006134538473ffffffffffffffffffffffffffffffffffffffff16613768565b156135ad578373ffffffffffffffffffffffffffffffffffffffff1663150b7a0261347c612522565b8786866040518563ffffffff1660e01b815260040161349e9493929190615675565b6020604051808303816000875af19250505080156134da57506040513d601f19601f820116820180604052508101906134d791906156d6565b60015b61355d573d806000811461350a576040519150601f19603f3d011682016040523d82523d6000602084013e61350f565b606091505b50600081511415613555576040517f08c379a000000000000000000000000000000000000000000000000000000000815260040161354c906154cf565b60405180910390fd5b805181602001fd5b63150b7a0260e01b7bffffffffffffffffffffffffffffffffffffffffffffffffffffffff1916817bffffffffffffffffffffffffffffffffffffffffffffffffffffffff1916149150506135b2565b600190505b949350505050565b600080600090507a184f03e93ff9f4daa797ed6e38ed64bf6a1f0100000000000000008310613618577a184f03e93ff9f4daa797ed6e38ed64bf6a1f010000000000000000838161360e5761360d614615565b5b0492506040810190505b6d04ee2d6d415b85acef81000000008310613655576d04ee2d6d415b85acef8100000000838161364b5761364a614615565b5b0492506020810190505b662386f26fc10000831061368457662386f26fc10000838161367a57613679614615565b5b0492506010810190505b6305f5e10083106136ad576305f5e10083816136a3576136a2614615565b5b0492506008810190505b61271083106136d25761271083816136c8576136c7614615565b5b0492506004810190505b606483106136f557606483816136eb576136ea614615565b5b0492506002810190505b600a8310613704576001810190505b80915050919050565b613717838361378b565b6137246000848484613432565b613763576040517f08c379a000000000000000000000000000000000000000000000000000000000815260040161375a906154cf565b60405180910390fd5b505050565b6000808273ffffffffffffffffffffffffffffffffffffffff163b119050919050565b600073ffffffffffffffffffffffffffffffffffffffff168273ffffffffffffffffffffffffffffffffffffffff1614156137fb576040517f08c379a00000000000000000000000000000000000000000000000000000000081526004016137f29061574f565b60405180910390fd5b613804816133e5565b15613844576040517f08c379a000000000000000000000000000000000000000000000000000000000815260040161383b906157bb565b60405180910390fd5b613852600083836001613426565b61385b816133e5565b1561389b576040517f08c379a0000000000000000000000000000000000000000000000000000000008152600401613892906157bb565b60405180910390fd5b6001600360008473ffffffffffffffffffffffffffffffffffffffff1673ffffffffffffffffffffffffffffffffffffffff16815260200190815260200160002060008282540192505081905550816002600083815260200190815260200160002060006101000a81548173ffffffffffffffffffffffffffffffffffffffff021916908373ffffffffffffffffffffffffffffffffffffffff160217905550808273ffffffffffffffffffffffffffffffffffffffff16600073ffffffffffffffffffffffffffffffffffffffff167fddf252ad1be2c89b69c2b068fc378daa952ba7f163c4a11628f55a4df523b3ef60405160405180910390a46139a560008383600161342c565b5050565b8280546139b59061484d565b90600052602060002090601f0160209004810192826139d75760008555613a1e565b82601f106139f057805160ff1916838001178555613a1e565b82800160010185558215613a1e579182015b82811115613a1d578251825591602001919060010190613a02565b5b509050613a2b9190613ab5565b5090565b828054613a3b9061484d565b90600052602060002090601f016020900481019282613a5d5760008555613aa4565b82601f10613a7657803560ff1916838001178555613aa4565b82800160010185558215613aa4579182015b82811115613aa3578235825591602001919060010190613a88565b5b509050613ab19190613ab5565b5090565b5b80821115613ace576000816000905550600101613ab6565b5090565b6000604051905090565b600080fd5b600080fd5b600073ffffffffffffffffffffffffffffffffffffffff82169050919050565b6000613b1182613ae6565b9050919050565b613b2181613b06565b8114613b2c57600080fd5b50565b600081359050613b3e81613b18565b92915050565b600060208284031215613b5a57613b59613adc565b5b6000613b6884828501613b2f565b91505092915050565b60007fffffffff0000000000000000000000000000000000000000000000000000000082169050919050565b613ba681613b71565b8114613bb157600080fd5b50565b600081359050613bc381613b9d565b92915050565b600060208284031215613bdf57613bde613adc565b5b6000613bed84828501613bb4565b91505092915050565b60008115159050919050565b613c0b81613bf6565b82525050565b6000602082019050613c266000830184613c02565b92915050565b600081519050919050565b600082825260208201905092915050565b60005b83811015613c66578082015181840152602081019050613c4b565b83811115613c75576000848401525b50505050565b6000601f19601f8301169050919050565b6000613c9782613c2c565b613ca18185613c37565b9350613cb1818560208601613c48565b613cba81613c7b565b840191505092915050565b60006020820190508181036000830152613cdf8184613c8c565b905092915050565b6000819050919050565b613cfa81613ce7565b8114613d0557600080fd5b50565b600081359050613d1781613cf1565b92915050565b600060208284031215613d3357613d32613adc565b5b6000613d4184828501613d08565b91505092915050565b6000613d5582613ae6565b9050919050565b613d6581613d4a565b82525050565b6000602082019050613d806000830184613d5c565b92915050565b613d8f81613d4a565b8114613d9a57600080fd5b50565b600081359050613dac81613d86565b92915050565b60008060408385031215613dc957613dc8613adc565b5b6000613dd785828601613d9d565b9250506020613de885828601613d08565b9150509250929050565b600080fd5b600080fd5b600080fd5b60008083601f840112613e1757613e16613df2565b5b8235905067ffffffffffffffff811115613e3457613e33613df7565b5b602083019150836001820283011115613e5057613e4f613dfc565b5b9250929050565b60008060208385031215613e6e57613e6d613adc565b5b600083013567ffffffffffffffff811115613e8c57613e8b613ae1565b5b613e9885828601613e01565b92509250509250929050565b600080600060608486031215613ebd57613ebc613adc565b5b6000613ecb86828701613d9d565b9350506020613edc86828701613d9d565b9250506040613eed86828701613d08565b9150509250925092565b600080fd5b7f4e487b7100000000000000000000000000000000000000000000000000000000600052604160045260246000fd5b613f3482613c7b565b810181811067ffffffffffffffff82111715613f5357613f52613efc565b5b80604052505050565b6000613f66613ad2565b9050613f728282613f2b565b919050565b600067ffffffffffffffff821115613f9257613f91613efc565b5b613f9b82613c7b565b9050602081019050919050565b82818337600083830152505050565b6000613fca613fc584613f77565b613f5c565b905082815260208101848484011115613fe657613fe5613ef7565b5b613ff1848285613fa8565b509392505050565b600082601f83011261400e5761400d613df2565b5b813561401e848260208601613fb7565b91505092915050565b60006020828403121561403d5761403c613adc565b5b600082013567ffffffffffffffff81111561405b5761405a613ae1565b5b61406784828501613ff9565b91505092915050565b60006020828403121561408657614085613adc565b5b600061409484828501613d9d565b91505092915050565b6140a681613ce7565b82525050565b60006020820190506140c1600083018461409d565b92915050565b6000806000606084860312156140e0576140df613adc565b5b600084013567ffffffffffffffff8111156140fe576140fd613ae1565b5b61410a86828701613ff9565b935050602084013567ffffffffffffffff81111561412b5761412a613ae1565b5b61413786828701613ff9565b925050604084013567ffffffffffffffff81111561415857614157613ae1565b5b61416486828701613ff9565b9150509250925092565b61417781613bf6565b811461418257600080fd5b50565b6000813590506141948161416e565b92915050565b600080604083850312156141b1576141b0613adc565b5b60006141bf85828601613d9d565b92505060206141d085828601614185565b9150509250929050565b600081519050919050565b600082825260208201905092915050565b6000819050602082019050919050565b600082825260208201905092915050565b600061422282613c2c565b61422c8185614206565b935061423c818560208601613c48565b61424581613c7b565b840191505092915050565b6000604083016000830151848203600086015261426d8282614217565b915050602083015184820360208601526142878282614217565b9150508091505092915050565b60006142a08383614250565b905092915050565b6000602082019050919050565b60006142c0826141da565b6142ca81856141e5565b9350836020820285016142dc856141f6565b8060005b8581101561431857848403895281516142f98582614294565b9450614304836142a8565b925060208a019950506001810190506142e0565b50829750879550505050505092915050565b6000602082019050818103600083015261434481846142b5565b905092915050565b600067ffffffffffffffff82111561436757614366613efc565b5b61437082613c7b565b9050602081019050919050565b600061439061438b8461434c565b613f5c565b9050828152602081018484840111156143ac576143ab613ef7565b5b6143b7848285613fa8565b509392505050565b600082601f8301126143d4576143d3613df2565b5b81356143e484826020860161437d565b91505092915050565b6000806000806080858703121561440757614406613adc565b5b600061441587828801613d9d565b945050602061442687828801613d9d565b935050604061443787828801613d08565b925050606085013567ffffffffffffffff81111561445857614457613ae1565b5b614464878288016143bf565b91505092959194509250565b6000806000806040858703121561448a57614489613adc565b5b600085013567ffffffffffffffff8111156144a8576144a7613ae1565b5b6144b487828801613e01565b9450945050602085013567ffffffffffffffff8111156144d7576144d6613ae1565b5b6144e387828801613e01565b925092505092959194509250565b6000806040838503121561450857614507613adc565b5b600061451685828601613d9d565b925050602061452785828601613d9d565b9150509250929050565b600081519050919050565b600082825260208201905092915050565b6000819050602082019050919050565b60006145698383614217565b905092915050565b6000602082019050919050565b600061458982614531565b614593818561453c565b9350836020820285016145a58561454d565b8060005b858110156145e157848403895281516145c2858261455d565b94506145cd83614571565b925060208a019950506001810190506145a9565b50829750879550505050505092915050565b6000602082019050818103600083015261460d818461457e565b905092915050565b7f4e487b7100000000000000000000000000000000000000000000000000000000600052601260045260246000fd5b7f4e487b7100000000000000000000000000000000000000000000000000000000600052601160045260246000fd5b600061467e82613ce7565b915061468983613ce7565b92508261469957614698614615565b5b828204905092915050565b60006146af82613ce7565b91506146ba83613ce7565b9250817fffffffffffffffffffffffffffffffffffffffffffffffffffffffffffffffff04831182151516156146f3576146f2614644565b5b828202905092915050565b600061470982613ce7565b915061471483613ce7565b92508282101561472757614726614644565b5b828203905092915050565b600061473d82613ce7565b915061474883613ce7565b9250827fffffffffffffffffffffffffffffffffffffffffffffffffffffffffffffffff0382111561477d5761477c614644565b5b828201905092915050565b6000819050919050565b60006147ad6147a86147a384613ae6565b614788565b613ae6565b9050919050565b60006147bf82614792565b9050919050565b60006147d1826147b4565b9050919050565b6147e1816147c6565b82525050565b60006060820190506147fc6000830186613d5c565b61480960208301856147d8565b614816604083018461409d565b949350505050565b7f4e487b7100000000000000000000000000000000000000000000000000000000600052602260045260246000fd5b6000600282049050600182168061486557607f821691505b602082108114156148795761487861481e565b5b50919050565b7f4552433732313a20617070726f76616c20746f2063757272656e74206f776e6560008201527f7200000000000000000000000000000000000000000000000000000000000000602082015250565b60006148db602183613c37565b91506148e68261487f565b604082019050919050565b6000602082019050818103600083015261490a816148ce565b9050919050565b7f4552433732313a20617070726f76652063616c6c6572206973206e6f7420746f60008201527f6b656e206f776e6572206f7220617070726f76656420666f7220616c6c000000602082015250565b600061496d603d83613c37565b915061497882614911565b604082019050919050565b6000602082019050818103600083015261499c81614960565b9050919050565b600081905092915050565b60006149ba83856149a3565b93506149c7838584613fa8565b82840190509392505050565b60006149e08284866149ae565b91508190509392505050565b7f4552433732313a2063616c6c6572206973206e6f7420746f6b656e206f776e6560008201527f72206f7220617070726f76656400000000000000000000000000000000000000602082015250565b6000614a48602d83613c37565b9150614a53826149ec565b604082019050919050565b60006020820190508181036000830152614a7781614a3b565b9050919050565b6000614a8982613c2c565b614a9381856149a3565b9350614aa3818560208601613c48565b80840191505092915050565b6000614abb8284614a7e565b915081905092915050565b600081905092915050565b50565b6000614ae1600083614ac6565b9150614aec82614ad1565b600082019050919050565b6000614b0282614ad4565b9150819050919050565b7f4661696c656420746f207769746864726177204d617469630000000000000000600082015250565b6000614b42601883613c37565b9150614b4d82614b0c565b602082019050919050565b60006020820190508181036000830152614b7181614b35565b9050919050565b7f4552433732313a20696e76616c696420746f6b656e2049440000000000000000600082015250565b6000614bae601883613c37565b9150614bb982614b78565b602082019050919050565b60006020820190508181036000830152614bdd81614ba1565b9050919050565b7f4552433732313a2061646472657373207a65726f206973206e6f74206120766160008201527f6c6964206f776e65720000000000000000000000000000000000000000000000602082015250565b6000614c40602983613c37565b9150614c4b82614be4565b604082019050919050565b60006020820190508181036000830152614c6f81614c33565b9050919050565b6000614c828285614a7e565b9150614c8e8284614a7e565b91508190509392505050565b6000614ca68385613c37565b9350614cb3838584613fa8565b614cbc83613c7b565b840190509392505050565b60006020820190508181036000830152614ce2818486614c9a565b90509392505050565b7f4e6f7420656e6f756768204d6174696320706169640000000000000000000000600082015250565b6000614d21601583613c37565b9150614d2c82614ceb565b602082019050919050565b60006020820190508181036000830152614d5081614d14565b9050919050565b7f2e00000000000000000000000000000000000000000000000000000000000000600082015250565b6000614d8d6001836149a3565b9150614d9882614d57565b600182019050919050565b60008190508160005260206000209050919050565b60008154614dc58161484d565b614dcf81866149a3565b94506001821660008114614dea5760018114614dfb57614e2e565b60ff19831686528186019350614e2e565b614e0485614da3565b60005b83811015614e2657815481890152600182019150602081019050614e07565b838801955050505b50505092915050565b6000614e448285876149ae565b9150614e4f82614d80565b9150614e5b8284614db8565b9150819050949350505050565b6000614e748286614db8565b9150614e808285614a7e565b9150614e8c8284614db8565b9150819050949350505050565b7f7b226e616d65223a202200000000000000000000000000000000000000000000600082015250565b6000614ecf600a836149a3565b9150614eda82614e99565b600a82019050919050565b7f222c20226465736372697074696f6e223a20224c696e6b4d6520646f6d61696e60008201527f2e222c2022696d616765223a2022646174613a696d6167652f7376672b786d6c60208201527f3b6261736536342c000000000000000000000000000000000000000000000000604082015250565b6000614f676048836149a3565b9150614f7282614ee5565b604882019050919050565b7f222c20226c656e677468223a2022000000000000000000000000000000000000600082015250565b6000614fb3600e836149a3565b9150614fbe82614f7d565b600e82019050919050565b7f227d000000000000000000000000000000000000000000000000000000000000600082015250565b6000614fff6002836149a3565b915061500a82614fc9565b600282019050919050565b600061502082614ec2565b915061502c8286614a7e565b915061503782614f5a565b91506150438285614a7e565b915061504e82614fa6565b915061505a8284614a7e565b915061506582614ff2565b9150819050949350505050565b7f646174613a6170706c69636174696f6e2f6a736f6e3b6261736536342c000000600082015250565b60006150a8601d836149a3565b91506150b382615072565b601d82019050919050565b60006150c98261509b565b91506150d58284614a7e565b915081905092915050565b60006060820190506150f56000830187613d5c565b8181036020830152615108818587614c9a565b9050615117604083018461409d565b95945050505050565b7f4f776e61626c653a206e6577206f776e657220697320746865207a65726f206160008201527f6464726573730000000000000000000000000000000000000000000000000000602082015250565b600061517c602683613c37565b915061518782615120565b604082019050919050565b600060208201905081810360008301526151ab8161516f565b9050919050565b7f4e487b7100000000000000000000000000000000000000000000000000000000600052603260045260246000fd5b60006151ec82613ce7565b91507fffffffffffffffffffffffffffffffffffffffffffffffffffffffffffffffff82141561521f5761521e614644565b5b600182019050919050565b600060408201905081810360008301526152448185613c8c565b905081810360208301526152588184613c8c565b90509392505050565b7f4552433732313a207472616e736665722066726f6d20696e636f72726563742060008201527f6f776e6572000000000000000000000000000000000000000000000000000000602082015250565b60006152bd602583613c37565b91506152c882615261565b604082019050919050565b600060208201905081810360008301526152ec816152b0565b9050919050565b7f4552433732313a207472616e7366657220746f20746865207a65726f2061646460008201527f7265737300000000000000000000000000000000000000000000000000000000602082015250565b600061534f602483613c37565b915061535a826152f3565b604082019050919050565b6000602082019050818103600083015261537e81615342565b9050919050565b7f4f776e61626c653a2063616c6c6572206973206e6f7420746865206f776e6572600082015250565b60006153bb602083613c37565b91506153c682615385565b602082019050919050565b600060208201905081810360008301526153ea816153ae565b9050919050565b7f4552433732313a20617070726f766520746f2063616c6c657200000000000000600082015250565b6000615427601983613c37565b9150615432826153f1565b602082019050919050565b600060208201905081810360008301526154568161541a565b9050919050565b7f4552433732313a207472616e7366657220746f206e6f6e20455243373231526560008201527f63656976657220696d706c656d656e7465720000000000000000000000000000602082015250565b60006154b9603283613c37565b91506154c48261545d565b604082019050919050565b600060208201905081810360008301526154e8816154ac565b9050919050565b600060808201905081810360008301526155098187613c8c565b9050818103602083015261551d8186613c8c565b905081810360408301526155318185613c8c565b9050615540606083018461409d565b95945050505050565b7f45524337323155524953746f726167653a2055524920736574206f66206e6f6e60008201527f6578697374656e7420746f6b656e000000000000000000000000000000000000602082015250565b60006155a5602e83613c37565b91506155b082615549565b604082019050919050565b600060208201905081810360008301526155d481615598565b9050919050565b600060608201905081810360008301526155f58186613c8c565b9050615604602083018561409d565b81810360408301526156168184613c8c565b9050949350505050565b600081519050919050565b600082825260208201905092915050565b600061564782615620565b615651818561562b565b9350615661818560208601613c48565b61566a81613c7b565b840191505092915050565b600060808201905061568a6000830187613d5c565b6156976020830186613d5c565b6156a4604083018561409d565b81810360608301526156b6818461563c565b905095945050505050565b6000815190506156d081613b9d565b92915050565b6000602082840312156156ec576156eb613adc565b5b60006156fa848285016156c1565b91505092915050565b7f4552433732313a206d696e7420746f20746865207a65726f2061646472657373600082015250565b6000615739602083613c37565b915061574482615703565b602082019050919050565b600060208201905081810360008301526157688161572c565b9050919050565b7f4552433732313a20746f6b656e20616c7265616479206d696e74656400000000600082015250565b60006157a5601c83613c37565b91506157b08261576f565b602082019050919050565b600060208201905081810360008301526157d481615798565b905091905056fe0a2d2d2d2d2d2d2d2d2d2d2d2d2d2d2d2d2d2d2d2d2d2d2d2d2d2d2d2d2d2d2d2d2d2d2d2d2d2d2d2d2d2d2d2d2d2d2d2d2d2d2d2d2d2d2d2d5265676973746572696e672025732e2573206f6e2074686520636f6e7472616374207769746820746f6b656e49442025642d2d2d2d2d2d2d2d2d2d2d2d2d2d2d2d2d2d2d2d2d2d2d2d2d2d2d2d2d2d2d2d2d2d2d2d2d2d2d2d2d2d2d2d2d2d2d2d2d2d2d2d2d2d2d2d0a4142434445464748494a4b4c4d4e4f505152535455565758595a6162636465666768696a6b6c6d6e6f707172737475767778797a303132333435363738392b2fa2646970667358221220698533415928c61a59e17aaa1cfb28d2f35baf7ae1b0b747a0cb1fbfa674028564736f6c634300080a00333c73766720786d6c6e733d22687474703a2f2f7777772e77332e6f72672f323030302f737667222077696474683d2232373022206865696768743d22323730222066696c6c3d226e6f6e65223e3c706174682066696c6c3d2275726c282342292220643d224d302030683237307632373048307a222f3e3c646566733e3c66696c7465722069643d22412220636f6c6f722d696e746572706f6c6174696f6e2d66696c746572733d2273524742222066696c746572556e6974733d227573657253706163654f6e55736522206865696768743d22323730222077696474683d22323730223e3c666544726f70536861646f772064783d2230222064793d22312220737464446576696174696f6e3d22322220666c6f6f642d6f7061636974793d222e323235222077696474683d223230302522206865696768743d2232303025222f3e3c2f66696c7465723e3c2f646566733e3c7061746820643d224d37322e3836332034322e393439632d2e3636382d2e3338372d312e3432362d2e35392d322e3139372d2e3539732d312e3532392e3230342d322e3139372e35396c2d31302e30383120362e3033322d362e383520332e3933342d31302e30383120362e303332632d2e3636382e3338372d312e3432362e35392d322e3139372e3539732d312e3532392d2e3230342d322e3139372d2e35396c2d382e3031332d342e37323161342e353220342e35322030203020312d312e3538392d312e363136632d2e3338342d2e3636352d2e3539342d312e3431382d2e3630382d322e313837762d392e3331632d2e3031332d2e3737352e3138352d312e3533382e3537322d322e32303861342e323520342e323520302030203120312e3632352d312e3539356c372e3838342d342e3539632e3636382d2e33383720312e3432362d2e353920322e3139372d2e353973312e3532392e32303420322e3139372e35396c372e38383420342e353961342e353220342e353220302030203120312e35383920312e363136632e3338342e3636352e35393420312e3431382e36303820322e31383776362e3033326c362e38352d342e303635762d362e303332632e3031332d2e3737352d2e3138352d312e3533382d2e3537322d322e32303861342e323520342e32352030203020302d312e3632352d312e3539354c34312e3435362032342e3539632d2e3636382d2e3338372d312e3432362d2e35392d322e3139372d2e3539732d312e3532392e3230342d322e3139372e35396c2d31342e38363420382e36353561342e323520342e32352030203020302d312e36323520312e353935632d2e3338372e36372d2e35383520312e3433342d2e35373220322e3230387631372e343431632d2e3031332e3737352e31383520312e3533382e35373220322e32303861342e323520342e323520302030203020312e36323520312e3539356c31342e38363420382e363535632e3636382e33383720312e3432362e353920322e3139372e353973312e3532392d2e32303420322e3139372d2e35396c31302e3038312d352e39303120362e38352d342e3036352031302e3038312d352e393031632e3636382d2e33383720312e3432362d2e353920322e3139372d2e353973312e3532392e32303420322e3139372e35396c372e38383420342e353961342e353220342e353220302030203120312e35383920312e363136632e3338342e3636352e35393420312e3431382e36303820322e31383776392e333131632e3031332e3737352d2e31383520312e3533382d2e35373220322e32303861342e323520342e32352030203020312d312e36323520312e3539356c2d372e38383420342e373231632d2e3636382e3338372d312e3432362e35392d322e3139372e3539732d312e3532392d2e3230342d322e3139372d2e35396c2d372e3838342d342e353961342e353220342e35322030203020312d312e3538392d312e363136632d2e3338352d2e3636352d2e3539342d312e3431382d2e3630382d322e313837762d362e3033326c2d362e383520342e30363576362e303332632d2e3031332e3737352e31383520312e3533382e35373220322e32303861342e323520342e323520302030203020312e36323520312e3539356c31342e38363420382e363535632e3636382e33383720312e3432362e353920322e3139372e353973312e3532392d2e32303420322e3139372d2e35396c31342e3836342d382e363535632e3635372d2e33393420312e3230342d2e393520312e3538392d312e363136732e3539342d312e3431382e3630392d322e3138375635352e353338632e3031332d2e3737352d2e3138352d312e3533382d2e3537322d322e32303861342e323520342e32352030203020302d312e3632352d312e3539356c2d31342e3939332d382e3738367a222066696c6c3d2223666666222f3e3c646566733e3c6c696e6561724772616469656e742069643d2242222078313d2230222079313d2230222078323d22323730222079323d2232373022206772616469656e74556e6974733d227573657253706163654f6e557365223e3c73746f702073746f702d636f6c6f723d2223636235656565222f3e3c73746f70206f66667365743d2231222073746f702d636f6c6f723d2223306364376534222073746f702d6f7061636974793d222e3939222f3e3c2f6c696e6561724772616469656e743e3c2f646566733e3c7465787420783d2233322e352220793d223233312220666f6e742d73697a653d223237222066696c6c3d2223666666222066696c7465723d2275726c282341292220666f6e742d66616d696c793d22506c7573204a616b617274612053616e732c44656a6156752053616e732c4e6f746f20436f6c6f7220456d6f6a692c4170706c6520436f6c6f7220456d6f6a692c73616e732d73657269662220666f6e742d7765696768743d22626f6c64223e",
  "linkReferences": {},
  "deployedLinkReferences": {}
}