{
  "_format": "hh-sol-artifact-1",
  "contractName": "Domains",
  "sourceName": "contracts/Domains.sol",
  "abi": [
    {
      "inputs": [
        {
          "internalType": "string",
          "name": "_tld",
          "type": "string"
        }
      ],
      "stateMutability": "payable",
      "type": "constructor"
    },
    {
      "inputs": [],
      "name": "AlreadyRegistered",
      "type": "error"
    },
    {
      "inputs": [
        {
          "internalType": "string",
          "name": "name",
          "type": "string"
        }
      ],
      "name": "InvalidName",
      "type": "error"
    },
    {
      "inputs": [],
      "name": "Unauthorized",
      "type": "error"
    },
    {
      "anonymous": false,
      "inputs": [
        {
          "indexed": true,
          "internalType": "address",
          "name": "owner",
          "type": "address"
        },
        {
          "indexed": true,
          "internalType": "address",
          "name": "approved",
          "type": "address"
        },
        {
          "indexed": true,
          "internalType": "uint256",
          "name": "tokenId",
          "type": "uint256"
        }
      ],
      "name": "Approval",
      "type": "event"
    },
    {
      "anonymous": false,
      "inputs": [
        {
          "indexed": true,
          "internalType": "address",
          "name": "owner",
          "type": "address"
        },
        {
          "indexed": true,
          "internalType": "address",
          "name": "operator",
          "type": "address"
        },
        {
          "indexed": false,
          "internalType": "bool",
          "name": "approved",
          "type": "bool"
        }
      ],
      "name": "ApprovalForAll",
      "type": "event"
    },
    {
      "anonymous": false,
      "inputs": [
        {
          "indexed": false,
          "internalType": "address",
          "name": "_from",
          "type": "address"
        },
        {
          "indexed": false,
          "internalType": "address",
          "name": "_to",
          "type": "address"
        },
        {
          "indexed": false,
          "internalType": "uint256",
          "name": "_amount",
          "type": "uint256"
        }
      ],
      "name": "NewDonatation",
      "type": "event"
    },
    {
      "anonymous": false,
      "inputs": [
        {
          "indexed": false,
          "internalType": "address",
          "name": "_from",
          "type": "address"
        },
        {
          "indexed": false,
          "internalType": "string",
          "name": "_domain",
          "type": "string"
        },
        {
          "indexed": false,
          "internalType": "uint256",
          "name": "_amount",
          "type": "uint256"
        }
      ],
      "name": "NewRegisteredDomain",
      "type": "event"
    },
    {
      "anonymous": false,
      "inputs": [
        {
          "indexed": true,
          "internalType": "address",
          "name": "previousOwner",
          "type": "address"
        },
        {
          "indexed": true,
          "internalType": "address",
          "name": "newOwner",
          "type": "address"
        }
      ],
      "name": "OwnershipTransferred",
      "type": "event"
    },
    {
      "anonymous": false,
      "inputs": [
        {
          "indexed": true,
          "internalType": "address",
          "name": "from",
          "type": "address"
        },
        {
          "indexed": true,
          "internalType": "address",
          "name": "to",
          "type": "address"
        },
        {
          "indexed": true,
          "internalType": "uint256",
          "name": "tokenId",
          "type": "uint256"
        }
      ],
      "name": "Transfer",
      "type": "event"
    },
    {
      "inputs": [
        {
          "internalType": "string",
          "name": "name",
          "type": "string"
        }
      ],
      "name": "ValidHandle",
      "outputs": [
        {
          "internalType": "bool",
          "name": "",
          "type": "bool"
        }
      ],
      "stateMutability": "view",
      "type": "function"
    },
    {
      "inputs": [
        {
          "internalType": "string",
          "name": "handle",
          "type": "string"
        },
        {
          "internalType": "string",
          "name": "value",
          "type": "string"
        },
        {
          "internalType": "string",
          "name": "key",
          "type": "string"
        }
      ],
      "name": "addLink",
      "outputs": [],
      "stateMutability": "nonpayable",
      "type": "function"
    },
    {
      "inputs": [],
      "name": "amountTransacted",
      "outputs": [
        {
          "internalType": "uint256",
          "name": "",
          "type": "uint256"
        }
      ],
      "stateMutability": "view",
      "type": "function"
    },
    {
      "inputs": [
        {
          "internalType": "address",
          "name": "to",
          "type": "address"
        },
        {
          "internalType": "uint256",
          "name": "tokenId",
          "type": "uint256"
        }
      ],
      "name": "approve",
      "outputs": [],
      "stateMutability": "nonpayable",
      "type": "function"
    },
    {
      "inputs": [
        {
          "internalType": "address",
          "name": "owner",
          "type": "address"
        }
      ],
      "name": "balanceOf",
      "outputs": [
        {
          "internalType": "uint256",
          "name": "",
          "type": "uint256"
        }
      ],
      "stateMutability": "view",
      "type": "function"
    },
    {
      "inputs": [],
      "name": "basicDonation",
      "outputs": [
        {
          "internalType": "uint256",
          "name": "",
          "type": "uint256"
        }
      ],
      "stateMutability": "view",
      "type": "function"
    },
    {
      "inputs": [
        {
          "internalType": "address",
          "name": "",
          "type": "address"
        }
      ],
      "name": "countDonations",
      "outputs": [
        {
          "internalType": "uint256",
          "name": "",
          "type": "uint256"
        }
      ],
      "stateMutability": "view",
      "type": "function"
    },
    {
      "inputs": [
        {
          "internalType": "string",
          "name": "",
          "type": "string"
        }
      ],
      "name": "domains",
      "outputs": [
        {
          "internalType": "address",
          "name": "",
          "type": "address"
        }
      ],
      "stateMutability": "view",
      "type": "function"
    },
    {
      "inputs": [
        {
          "internalType": "address payable",
          "name": "_to",
          "type": "address"
        }
      ],
      "name": "donate",
      "outputs": [],
      "stateMutability": "payable",
      "type": "function"
    },
    {
      "inputs": [],
      "name": "fee",
      "outputs": [
        {
          "internalType": "uint256",
          "name": "",
          "type": "uint256"
        }
      ],
      "stateMutability": "view",
      "type": "function"
    },
    {
      "inputs": [
        {
          "internalType": "string",
          "name": "name",
          "type": "string"
        }
      ],
      "name": "getAddress",
      "outputs": [
        {
          "internalType": "address",
          "name": "",
          "type": "address"
        }
      ],
      "stateMutability": "view",
      "type": "function"
    },
    {
      "inputs": [],
      "name": "getAllNames",
      "outputs": [
        {
          "internalType": "string[]",
          "name": "",
          "type": "string[]"
        }
      ],
      "stateMutability": "view",
      "type": "function"
    },
    {
      "inputs": [
        {
          "internalType": "uint256",
          "name": "tokenId",
          "type": "uint256"
        }
      ],
      "name": "getApproved",
      "outputs": [
        {
          "internalType": "address",
          "name": "",
          "type": "address"
        }
      ],
      "stateMutability": "view",
      "type": "function"
    },
    {
      "inputs": [
        {
          "internalType": "string",
          "name": "handle",
          "type": "string"
        }
      ],
      "name": "getLinks",
      "outputs": [
        {
          "components": [
            {
              "internalType": "string",
              "name": "value",
              "type": "string"
            },
            {
              "internalType": "string",
              "name": "key",
              "type": "string"
            }
          ],
          "internalType": "struct Links.Link[]",
          "name": "",
          "type": "tuple[]"
        }
      ],
      "stateMutability": "view",
      "type": "function"
    },
    {
      "inputs": [
        {
          "internalType": "string",
          "name": "name",
          "type": "string"
        }
      ],
      "name": "getRecord",
      "outputs": [
        {
          "internalType": "string",
          "name": "",
          "type": "string"
        }
      ],
      "stateMutability": "view",
      "type": "function"
    },
    {
      "inputs": [
        {
          "internalType": "address",
          "name": "_address",
          "type": "address"
        }
      ],
      "name": "getTotalDonationsByAddress",
      "outputs": [
        {
          "internalType": "uint256",
          "name": "",
          "type": "uint256"
        }
      ],
      "stateMutability": "view",
      "type": "function"
    },
    {
      "inputs": [
        {
          "internalType": "address",
          "name": "owner",
          "type": "address"
        },
        {
          "internalType": "address",
          "name": "operator",
          "type": "address"
        }
      ],
      "name": "isApprovedForAll",
      "outputs": [
        {
          "internalType": "bool",
          "name": "",
          "type": "bool"
        }
      ],
      "stateMutability": "view",
      "type": "function"
    },
    {
      "inputs": [],
      "name": "name",
      "outputs": [
        {
          "internalType": "string",
          "name": "",
          "type": "string"
        }
      ],
      "stateMutability": "view",
      "type": "function"
    },
    {
      "inputs": [
        {
          "internalType": "uint256",
          "name": "",
          "type": "uint256"
        }
      ],
      "name": "names",
      "outputs": [
        {
          "internalType": "string",
          "name": "",
          "type": "string"
        }
      ],
      "stateMutability": "view",
      "type": "function"
    },
    {
      "inputs": [],
      "name": "owner",
      "outputs": [
        {
          "internalType": "address",
          "name": "",
          "type": "address"
        }
      ],
      "stateMutability": "view",
      "type": "function"
    },
    {
      "inputs": [
        {
          "internalType": "uint256",
          "name": "tokenId",
          "type": "uint256"
        }
      ],
      "name": "ownerOf",
      "outputs": [
        {
          "internalType": "address",
          "name": "",
          "type": "address"
        }
      ],
      "stateMutability": "view",
      "type": "function"
    },
    {
      "inputs": [
        {
          "internalType": "string",
          "name": "name",
          "type": "string"
        }
      ],
      "name": "price",
      "outputs": [
        {
          "internalType": "uint256",
          "name": "",
          "type": "uint256"
        }
      ],
      "stateMutability": "pure",
      "type": "function"
    },
    {
      "inputs": [
        {
          "internalType": "string",
          "name": "",
          "type": "string"
        }
      ],
      "name": "records",
      "outputs": [
        {
          "internalType": "string",
          "name": "",
          "type": "string"
        }
      ],
      "stateMutability": "view",
      "type": "function"
    },
    {
      "inputs": [
        {
          "internalType": "string",
          "name": "name",
          "type": "string"
        }
      ],
      "name": "register",
      "outputs": [],
      "stateMutability": "payable",
      "type": "function"
    },
    {
      "inputs": [],
      "name": "renounceOwnership",
      "outputs": [],
      "stateMutability": "nonpayable",
      "type": "function"
    },
    {
      "inputs": [
        {
          "internalType": "address",
          "name": "from",
          "type": "address"
        },
        {
          "internalType": "address",
          "name": "to",
          "type": "address"
        },
        {
          "internalType": "uint256",
          "name": "tokenId",
          "type": "uint256"
        }
      ],
      "name": "safeTransferFrom",
      "outputs": [],
      "stateMutability": "nonpayable",
      "type": "function"
    },
    {
      "inputs": [
        {
          "internalType": "address",
          "name": "from",
          "type": "address"
        },
        {
          "internalType": "address",
          "name": "to",
          "type": "address"
        },
        {
          "internalType": "uint256",
          "name": "tokenId",
          "type": "uint256"
        },
        {
          "internalType": "bytes",
          "name": "data",
          "type": "bytes"
        }
      ],
      "name": "safeTransferFrom",
      "outputs": [],
      "stateMutability": "nonpayable",
      "type": "function"
    },
    {
      "inputs": [
        {
          "internalType": "address",
          "name": "operator",
          "type": "address"
        },
        {
          "internalType": "bool",
          "name": "approved",
          "type": "bool"
        }
      ],
      "name": "setApprovalForAll",
      "outputs": [],
      "stateMutability": "nonpayable",
      "type": "function"
    },
    {
      "inputs": [
        {
          "internalType": "uint256",
          "name": "_basicDonation",
          "type": "uint256"
        }
      ],
      "name": "setBasicDonation",
      "outputs": [],
      "stateMutability": "nonpayable",
      "type": "function"
    },
    {
      "inputs": [
        {
          "internalType": "uint256",
          "name": "_newFee",
          "type": "uint256"
        }
      ],
      "name": "setFee",
      "outputs": [],
      "stateMutability": "nonpayable",
      "type": "function"
    },
    {
      "inputs": [
        {
          "internalType": "string",
          "name": "name",
          "type": "string"
        },
        {
          "internalType": "string",
          "name": "record",
          "type": "string"
        }
      ],
      "name": "setRecord",
      "outputs": [],
      "stateMutability": "nonpayable",
      "type": "function"
    },
    {
      "inputs": [
        {
          "internalType": "bytes4",
          "name": "interfaceId",
          "type": "bytes4"
        }
      ],
      "name": "supportsInterface",
      "outputs": [
        {
          "internalType": "bool",
          "name": "",
          "type": "bool"
        }
      ],
      "stateMutability": "view",
      "type": "function"
    },
    {
      "inputs": [],
      "name": "symbol",
      "outputs": [
        {
          "internalType": "string",
          "name": "",
          "type": "string"
        }
      ],
      "stateMutability": "view",
      "type": "function"
    },
    {
      "inputs": [],
      "name": "tld",
      "outputs": [
        {
          "internalType": "string",
          "name": "",
          "type": "string"
        }
      ],
      "stateMutability": "view",
      "type": "function"
    },
    {
      "inputs": [
        {
          "internalType": "uint256",
          "name": "tokenId",
          "type": "uint256"
        }
      ],
      "name": "tokenURI",
      "outputs": [
        {
          "internalType": "string",
          "name": "",
          "type": "string"
        }
      ],
      "stateMutability": "view",
      "type": "function"
    },
    {
      "inputs": [],
      "name": "totalCommissions",
      "outputs": [
        {
          "internalType": "uint256",
          "name": "",
          "type": "uint256"
        }
      ],
      "stateMutability": "view",
      "type": "function"
    },
    {
      "inputs": [],
      "name": "totalDonations",
      "outputs": [
        {
          "internalType": "uint256",
          "name": "",
          "type": "uint256"
        }
      ],
      "stateMutability": "view",
      "type": "function"
    },
    {
      "inputs": [
        {
          "internalType": "address",
          "name": "from",
          "type": "address"
        },
        {
          "internalType": "address",
          "name": "to",
          "type": "address"
        },
        {
          "internalType": "uint256",
          "name": "tokenId",
          "type": "uint256"
        }
      ],
      "name": "transferFrom",
      "outputs": [],
      "stateMutability": "nonpayable",
      "type": "function"
    },
    {
      "inputs": [
        {
          "internalType": "address",
          "name": "newOwner",
          "type": "address"
        }
      ],
      "name": "transferOwnership",
      "outputs": [],
      "stateMutability": "nonpayable",
      "type": "function"
    },
    {
      "inputs": [
        {
          "internalType": "string",
          "name": "name",
          "type": "string"
        }
      ],
      "name": "valid",
      "outputs": [
        {
          "internalType": "bool",
          "name": "",
          "type": "bool"
        }
      ],
      "stateMutability": "pure",
      "type": "function"
    },
    {
      "inputs": [],
      "name": "withdraw",
      "outputs": [],
      "stateMutability": "nonpayable",
      "type": "function"
    }
  ],
  "bytecode": "0x60806040526005600955662e2f6e5e148000600a556000600b556000600c556000600d55604051806108a0016040528061086b815260200162005fe261086b9139601290805190602001906200005792919062000394565b506040518060400160405280600d81526020017f3c2f746578743e3c2f7376673e0000000000000000000000000000000000000081525060139080519060200190620000a592919062000394565b506040516200684d3803806200684d8339818101604052810190620000cb9190620005e1565b6040518060400160405280600681526020017f4c696e6b4d6500000000000000000000000000000000000000000000000000008152506040518060400160405280600381526020017f4c4d45000000000000000000000000000000000000000000000000000000000081525081600090805190602001906200014f92919062000394565b5080600190805190602001906200016892919062000394565b5050506200018b6200017f620001f760201b60201c565b620001ff60201b60201c565b8060119080519060200190620001a392919062000394565b50620001f06040518060400160405280600b81526020017f2573206465706c6f79656400000000000000000000000000000000000000000081525082620002c560201b620023801760201c565b506200072f565b600033905090565b6000600760009054906101000a900473ffffffffffffffffffffffffffffffffffffffff16905081600760006101000a81548173ffffffffffffffffffffffffffffffffffffffff021916908373ffffffffffffffffffffffffffffffffffffffff1602179055508173ffffffffffffffffffffffffffffffffffffffff168173ffffffffffffffffffffffffffffffffffffffff167f8be0079c531659141344cd1fd0a4f28419497f9722a3daafe3b4186f6b6457e060405160405180910390a35050565b620003678282604051602401620002de9291906200068f565b6040516020818303038152906040527f4b5c4277000000000000000000000000000000000000000000000000000000007bffffffffffffffffffffffffffffffffffffffffffffffffffffffff19166020820180517bffffffffffffffffffffffffffffffffffffffffffffffffffffffff83818316178352505050506200036b60201b60201c565b5050565b60008151905060006a636f6e736f6c652e6c6f679050602083016000808483855afa5050505050565b828054620003a290620006f9565b90600052602060002090601f016020900481019282620003c6576000855562000412565b82601f10620003e157805160ff191683800117855562000412565b8280016001018555821562000412579182015b8281111562000411578251825591602001919060010190620003f4565b5b50905062000421919062000425565b5090565b5b808211156200044057600081600090555060010162000426565b5090565b6000604051905090565b600080fd5b600080fd5b600080fd5b600080fd5b6000601f19601f8301169050919050565b7f4e487b7100000000000000000000000000000000000000000000000000000000600052604160045260246000fd5b620004ad8262000462565b810181811067ffffffffffffffff82111715620004cf57620004ce62000473565b5b80604052505050565b6000620004e462000444565b9050620004f28282620004a2565b919050565b600067ffffffffffffffff82111562000515576200051462000473565b5b620005208262000462565b9050602081019050919050565b60005b838110156200054d57808201518184015260208101905062000530565b838111156200055d576000848401525b50505050565b60006200057a6200057484620004f7565b620004d8565b9050828152602081018484840111156200059957620005986200045d565b5b620005a68482856200052d565b509392505050565b600082601f830112620005c657620005c562000458565b5b8151620005d884826020860162000563565b91505092915050565b600060208284031215620005fa57620005f96200044e565b5b600082015167ffffffffffffffff8111156200061b576200061a62000453565b5b6200062984828501620005ae565b91505092915050565b600081519050919050565b600082825260208201905092915050565b60006200065b8262000632565b6200066781856200063d565b9350620006798185602086016200052d565b620006848162000462565b840191505092915050565b60006040820190508181036000830152620006ab81856200064e565b90508181036020830152620006c181846200064e565b90509392505050565b7f4e487b7100000000000000000000000000000000000000000000000000000000600052602260045260246000fd5b600060028204905060018216806200071257607f821691505b60208210811415620007295762000728620006ca565b5b50919050565b6158a3806200073f6000396000f3fe6080604052600436106102455760003560e01c80638792e30311610139578063c1880a98116100b6578063df31db6c1161007a578063df31db6c146108de578063e985e9c51461091b578063f2c298be14610958578063f2fde38b14610974578063fb825e5f1461099d578063fe2c6198146109c857610245565b8063c1880a98146107f7578063c87b56dd14610820578063ca5c6c861461085d578063ddca3f4314610888578063de2ed893146108b357610245565b8063a22cb465116100fd578063a22cb46514610700578063ada98ff714610729578063b7210f8d14610754578063b88d4fde14610791578063bf40fac1146107ba57610245565b80638792e303146106055780638da5cb5b1461063057806395d89b411461065b5780639791c097146106865780639bb04c6a146106c357610245565b80632d551432116101c757806361db45231161018b57806361db4523146105225780636352211e1461054b57806369fe0e2d1461058857806370a08231146105b1578063715018a6146105ee57610245565b80632d5514321461043d5780633ccfd60b1461046857806342842e0e1461047f5780634622ab03146104a8578063541e771d146104e557610245565b806311dd88451161020e57806311dd88451461033457806323b872dd14610371578063264492351461039a5780632ace1b6d146103d75780632d2889821461041457610245565b8062362a951461024a57806301ffc9a71461026657806306fdde03146102a3578063081812fc146102ce578063095ea7b31461030b575b600080fd5b610264600480360381019061025f9190613af3565b610a05565b005b34801561027257600080fd5b5061028d60048036038101906102889190613b78565b610b8e565b60405161029a9190613bc0565b60405180910390f35b3480156102af57600080fd5b506102b8610c70565b6040516102c59190613c74565b60405180910390f35b3480156102da57600080fd5b506102f560048036038101906102f09190613ccc565b610d02565b6040516103029190613d1a565b60405180910390f35b34801561031757600080fd5b50610332600480360381019061032d9190613d61565b610d48565b005b34801561034057600080fd5b5061035b60048036038101906103569190613e06565b610e60565b6040516103689190613c74565b60405180910390f35b34801561037d57600080fd5b5061039860048036038101906103939190613e53565b610f13565b005b3480156103a657600080fd5b506103c160048036038101906103bc9190613fd6565b610f73565b6040516103ce9190613d1a565b60405180910390f35b3480156103e357600080fd5b506103fe60048036038101906103f9919061401f565b610fbc565b60405161040b919061405b565b60405180910390f35b34801561042057600080fd5b5061043b60048036038101906104369190614076565b610fd4565b005b34801561044957600080fd5b50610452611071565b60405161045f9190613c74565b60405180910390f35b34801561047457600080fd5b5061047d6110ff565b005b34801561048b57600080fd5b506104a660048036038101906104a19190613e53565b6111c8565b005b3480156104b457600080fd5b506104cf60048036038101906104ca9190613ccc565b6111e8565b6040516104dc9190613c74565b60405180910390f35b3480156104f157600080fd5b5061050c60048036038101906105079190613fd6565b611288565b6040516105199190613c74565b60405180910390f35b34801561052e57600080fd5b5061054960048036038101906105449190613ccc565b61133e565b005b34801561055757600080fd5b50610572600480360381019061056d9190613ccc565b611350565b60405161057f9190613d1a565b60405180910390f35b34801561059457600080fd5b506105af60048036038101906105aa9190613ccc565b6113d7565b005b3480156105bd57600080fd5b506105d860048036038101906105d3919061401f565b6113e9565b6040516105e5919061405b565b60405180910390f35b3480156105fa57600080fd5b506106036114a1565b005b34801561061157600080fd5b5061061a6114b5565b604051610627919061405b565b60405180910390f35b34801561063c57600080fd5b506106456114bb565b6040516106529190613d1a565b60405180910390f35b34801561066757600080fd5b506106706114e5565b60405161067d9190613c74565b60405180910390f35b34801561069257600080fd5b506106ad60048036038101906106a89190613e06565b611577565b6040516106ba9190613bc0565b60405180910390f35b3480156106cf57600080fd5b506106ea60048036038101906106e59190613e06565b61162b565b6040516106f79190613bc0565b60405180910390f35b34801561070c57600080fd5b5061072760048036038101906107229190614149565b6116b4565b005b34801561073557600080fd5b5061073e6116ca565b60405161074b919061405b565b60405180910390f35b34801561076057600080fd5b5061077b60048036038101906107769190613fd6565b6116d0565b60405161078891906142d9565b60405180910390f35b34801561079d57600080fd5b506107b860048036038101906107b3919061439c565b611871565b005b3480156107c657600080fd5b506107e160048036038101906107dc9190613e06565b6118d3565b6040516107ee9190613d1a565b60405180910390f35b34801561080357600080fd5b5061081e6004803603810190610819919061441f565b61191e565b005b34801561082c57600080fd5b5061084760048036038101906108429190613ccc565b6119f9565b6040516108549190613c74565b60405180910390f35b34801561086957600080fd5b50610872611b0c565b60405161087f919061405b565b60405180910390f35b34801561089457600080fd5b5061089d611b12565b6040516108aa919061405b565b60405180910390f35b3480156108bf57600080fd5b506108c8611b18565b6040516108d5919061405b565b60405180910390f35b3480156108ea57600080fd5b506109056004803603810190610900919061401f565b611b1e565b604051610912919061405b565b60405180910390f35b34801561092757600080fd5b50610942600480360381019061093d91906144a0565b611b67565b60405161094f9190613bc0565b60405180910390f35b610972600480360381019061096d9190613e06565b611bfb565b005b34801561098057600080fd5b5061099b6004803603810190610996919061401f565b6120b6565b005b3480156109a957600080fd5b506109b261213a565b6040516109bf91906145a2565b60405180910390f35b3480156109d457600080fd5b506109ef60048036038101906109ea9190613e06565b6122da565b6040516109fc919061405b565b60405180910390f35b600a543411610a1357600080fd5b6000600954606434610a259190614622565b610a2f9190614653565b90508173ffffffffffffffffffffffffffffffffffffffff166108fc8234610a5791906146ad565b9081150290604051600060405180830381858888f19350505050158015610a82573d6000803e3d6000fd5b506001600e60008473ffffffffffffffffffffffffffffffffffffffff1673ffffffffffffffffffffffffffffffffffffffff16815260200190815260200160002054610acf91906146e1565b600e60008473ffffffffffffffffffffffffffffffffffffffff1673ffffffffffffffffffffffffffffffffffffffff168152602001908152602001600020819055506001600b54610b2191906146e1565b600b8190555080600d54610b3591906146e1565b600d8190555034600c54610b4991906146e1565b600c819055507ff32cc2e55a01e2a6804f643f4d269c54bfb1b6980f27bb6285c37f4ecd3356f9338334604051610b8293929190614796565b60405180910390a15050565b60007f80ac58cd000000000000000000000000000000000000000000000000000000007bffffffffffffffffffffffffffffffffffffffffffffffffffffffff1916827bffffffffffffffffffffffffffffffffffffffffffffffffffffffff19161480610c5957507f5b5e139f000000000000000000000000000000000000000000000000000000007bffffffffffffffffffffffffffffffffffffffffffffffffffffffff1916827bffffffffffffffffffffffffffffffffffffffffffffffffffffffff1916145b80610c695750610c688261241c565b5b9050919050565b606060008054610c7f906147fc565b80601f0160208091040260200160405190810160405280929190818152602001828054610cab906147fc565b8015610cf85780601f10610ccd57610100808354040283529160200191610cf8565b820191906000526020600020905b815481529060010190602001808311610cdb57829003601f168201915b5050505050905090565b6000610d0d82612486565b6004600083815260200190815260200160002060009054906101000a900473ffffffffffffffffffffffffffffffffffffffff169050919050565b6000610d5382611350565b90508073ffffffffffffffffffffffffffffffffffffffff168373ffffffffffffffffffffffffffffffffffffffff161415610dc4576040517f08c379a0000000000000000000000000000000000000000000000000000000008152600401610dbb906148a0565b60405180910390fd5b8073ffffffffffffffffffffffffffffffffffffffff16610de36124d1565b73ffffffffffffffffffffffffffffffffffffffff161480610e125750610e1181610e0c6124d1565b611b67565b5b610e51576040517f08c379a0000000000000000000000000000000000000000000000000000000008152600401610e4890614932565b60405180910390fd5b610e5b83836124d9565b505050565b606060158383604051610e74929190614982565b90815260200160405180910390208054610e8d906147fc565b80601f0160208091040260200160405190810160405280929190818152602001828054610eb9906147fc565b8015610f065780601f10610edb57610100808354040283529160200191610f06565b820191906000526020600020905b815481529060010190602001808311610ee957829003601f168201915b5050505050905092915050565b610f24610f1e6124d1565b82612592565b610f63576040517f08c379a0000000000000000000000000000000000000000000000000000000008152600401610f5a90614a0d565b60405180910390fd5b610f6e838383612627565b505050565b6014818051602081018201805184825260208301602085012081835280955050505050506000915054906101000a900473ffffffffffffffffffffffffffffffffffffffff1681565b600e6020528060005260406000206000915090505481565b600f83604051610fe49190614a5e565b90815260200160405180910390206040518060400160405280848152602001838152509080600181540180825580915050600190039060005260206000209060020201600090919091909150600082015181600001908051906020019061104c929190613958565b506020820151816001019080519060200190611069929190613958565b505050505050565b6011805461107e906147fc565b80601f01602080910402602001604051908101604052809291908181526020018280546110aa906147fc565b80156110f75780601f106110cc576101008083540402835291602001916110f7565b820191906000526020600020905b8154815290600101906020018083116110da57829003601f168201915b505050505081565b611107612921565b600047905060003373ffffffffffffffffffffffffffffffffffffffff168260405161113290614aa6565b60006040518083038185875af1925050503d806000811461116f576040519150601f19603f3d011682016040523d82523d6000602084013e611174565b606091505b505090508080156111855750600082115b6111c4576040517f08c379a00000000000000000000000000000000000000000000000000000000081526004016111bb90614b07565b60405180910390fd5b5050565b6111e383838360405180602001604052806000815250611871565b505050565b60166020528060005260406000206000915090508054611207906147fc565b80601f0160208091040260200160405190810160405280929190818152602001828054611233906147fc565b80156112805780601f1061125557610100808354040283529160200191611280565b820191906000526020600020905b81548152906001019060200180831161126357829003601f168201915b505050505081565b60158180516020810182018051848252602083016020850120818352809550505050505060009150905080546112bd906147fc565b80601f01602080910402602001604051908101604052809291908181526020018280546112e9906147fc565b80156113365780601f1061130b57610100808354040283529160200191611336565b820191906000526020600020905b81548152906001019060200180831161131957829003601f168201915b505050505081565b611346612921565b80600a8190555050565b60008061135c8361299f565b9050600073ffffffffffffffffffffffffffffffffffffffff168173ffffffffffffffffffffffffffffffffffffffff1614156113ce576040517f08c379a00000000000000000000000000000000000000000000000000000000081526004016113c590614b73565b60405180910390fd5b80915050919050565b6113df612921565b8060098190555050565b60008073ffffffffffffffffffffffffffffffffffffffff168273ffffffffffffffffffffffffffffffffffffffff16141561145a576040517f08c379a000000000000000000000000000000000000000000000000000000000815260040161145190614c05565b60405180910390fd5b600360008373ffffffffffffffffffffffffffffffffffffffff1673ffffffffffffffffffffffffffffffffffffffff168152602001908152602001600020549050919050565b6114a9612921565b6114b360006129dc565b565b600d5481565b6000600760009054906101000a900473ffffffffffffffffffffffffffffffffffffffff16905090565b6060600180546114f4906147fc565b80601f0160208091040260200160405190810160405280929190818152602001828054611520906147fc565b801561156d5780601f106115425761010080835404028352916020019161156d565b820191906000526020600020905b81548152906001019060200180831161155057829003601f168201915b5050505050905090565b600060036115c884848080601f016020809104026020016040519081016040528093929190818152602001838380828437600081840152601f19601f82011690508083019250505050505050612aa2565b101580156116235750600a61162084848080601f016020809104026020016040519081016040528093929190818152602001838380828437600081840152601f19601f82011690508083019250505050505050612aa2565b11155b905092915050565b60008073ffffffffffffffffffffffffffffffffffffffff1660148484604051611656929190614982565b908152602001604051809103902060009054906101000a900473ffffffffffffffffffffffffffffffffffffffff1673ffffffffffffffffffffffffffffffffffffffff16146116a957600090506116ae565b600190505b92915050565b6116c66116bf6124d1565b8383612c57565b5050565b600c5481565b6060600f826040516116e29190614a5e565b9081526020016040518091039020805480602002602001604051908101604052809291908181526020016000905b828210156118665783829060005260206000209060020201604051806040016040529081600082018054611743906147fc565b80601f016020809104026020016040519081016040528092919081815260200182805461176f906147fc565b80156117bc5780601f10611791576101008083540402835291602001916117bc565b820191906000526020600020905b81548152906001019060200180831161179f57829003601f168201915b505050505081526020016001820180546117d5906147fc565b80601f0160208091040260200160405190810160405280929190818152602001828054611801906147fc565b801561184e5780601f106118235761010080835404028352916020019161184e565b820191906000526020600020905b81548152906001019060200180831161183157829003601f168201915b50505050508152505081526020019060010190611710565b505050509050919050565b61188261187c6124d1565b83612592565b6118c1576040517f08c379a00000000000000000000000000000000000000000000000000000000081526004016118b890614a0d565b60405180910390fd5b6118cd84848484612dc4565b50505050565b6000601483836040516118e7929190614982565b908152602001604051809103902060009054906101000a900473ffffffffffffffffffffffffffffffffffffffff16905092915050565b60148484604051611930929190614982565b908152602001604051809103902060009054906101000a900473ffffffffffffffffffffffffffffffffffffffff1673ffffffffffffffffffffffffffffffffffffffff163373ffffffffffffffffffffffffffffffffffffffff16146119c3576040517f82b4290000000000000000000000000000000000000000000000000000000000815260040160405180910390fd5b8181601586866040516119d7929190614982565b908152602001604051809103902091906119f29291906139de565b5050505050565b6060611a0482612486565b6000600660008481526020019081526020016000208054611a24906147fc565b80601f0160208091040260200160405190810160405280929190818152602001828054611a50906147fc565b8015611a9d5780601f10611a7257610100808354040283529160200191611a9d565b820191906000526020600020905b815481529060010190602001808311611a8057829003601f168201915b505050505090506000611aae612e20565b9050600081511415611ac4578192505050611b07565b600082511115611af9578082604051602001611ae1929190614c25565b60405160208183030381529060405292505050611b07565b611b0284612e37565b925050505b919050565b600a5481565b60095481565b600b5481565b6000600e60008373ffffffffffffffffffffffffffffffffffffffff1673ffffffffffffffffffffffffffffffffffffffff168152602001908152602001600020549050919050565b6000600560008473ffffffffffffffffffffffffffffffffffffffff1673ffffffffffffffffffffffffffffffffffffffff16815260200190815260200160002060008373ffffffffffffffffffffffffffffffffffffffff1673ffffffffffffffffffffffffffffffffffffffff16815260200190815260200160002060009054906101000a900460ff16905092915050565b600073ffffffffffffffffffffffffffffffffffffffff1660148383604051611c25929190614982565b908152602001604051809103902060009054906101000a900473ffffffffffffffffffffffffffffffffffffffff1673ffffffffffffffffffffffffffffffffffffffff1614611ca1576040517f3a81d6fc00000000000000000000000000000000000000000000000000000000815260040160405180910390fd5b611cab8282611577565b611cee5781816040517f7f19f48d000000000000000000000000000000000000000000000000000000008152600401611ce5929190614c76565b60405180910390fd5b6000611cfa83836122da565b905080341015611d3f576040517f08c379a0000000000000000000000000000000000000000000000000000000008152600401611d3690614ce6565b60405180910390fd5b600083836011604051602001611d5793929190614de6565b604051602081830303815290604052905060006012826013604051602001611d8193929190614e17565b60405160208183030381529060405290506000611d9e6010612e9f565b90506000611def87878080601f016020809104026020016040519081016040528093929190818152602001838380828437600081840152601f19601f82011690508083019250505050505050612aa2565b90506000611dfc82612ead565b9050611ef06040518060600160405280603181526020016157c46031913989898080601f016020809104026020016040519081016040528093929190818152602001838380828437600081840152601f19601f8201169050808301925050505050505060118054611e6c906147fc565b80601f0160208091040260200160405190810160405280929190818152602001828054611e98906147fc565b8015611ee55780601f10611eba57610100808354040283529160200191611ee5565b820191906000526020600020905b815481529060010190602001808311611ec857829003601f168201915b505050505086612f85565b6000611f2686611eff87613027565b84604051602001611f1293929190614fc4565b604051602081830303815290604052613027565b9050600081604051602001611f3b919061506d565b6040516020818303038152906040529050611f6d60405180606001604052806039815260200161578b6039913961318b565b611fac6040518060400160405280600e81526020017f46696e616c20746f6b656e55524900000000000000000000000000000000000081525082612380565b611fcd6040518060600160405280603981526020016157f56039913961318b565b611fd73386613224565b611fe18582613242565b3360148b8b604051611ff4929190614982565b908152602001604051809103902060006101000a81548173ffffffffffffffffffffffffffffffffffffffff021916908373ffffffffffffffffffffffffffffffffffffffff16021790555089896016600088815260200190815260200160002091906120629291906139de565b5061206d60106132b6565b7fbf4bc096febed784d9fd66841a9ce78b4f61a53f9890776e188b2f8522223e34338b8b8b6040516120a2949392919061508f565b60405180910390a150505050505050505050565b6120be612921565b600073ffffffffffffffffffffffffffffffffffffffff168173ffffffffffffffffffffffffffffffffffffffff16141561212e576040517f08c379a000000000000000000000000000000000000000000000000000000000815260040161212590615141565b60405180910390fd5b612137816129dc565b50565b606060006121486010612e9f565b67ffffffffffffffff81111561216157612160613eab565b5b60405190808252806020026020018201604052801561219457816020015b606081526020019060019003908161217f5790505b50905060005b6121a46010612e9f565b8110156122d2576016600082815260200190815260200160002080546121c9906147fc565b80601f01602080910402602001604051908101604052809291908181526020018280546121f5906147fc565b80156122425780601f1061221757610100808354040283529160200191612242565b820191906000526020600020905b81548152906001019060200180831161222557829003601f168201915b505050505082828151811061225a57612259615161565b5b60200260200101819052506122bf6040518060400160405280601781526020017f4e616d6520666f7220746f6b656e202564206973202573000000000000000000815250828484815181106122b2576122b1615161565b5b60200260200101516132cc565b80806122ca90615190565b91505061219a565b508091505090565b60008061232a84848080601f016020809104026020016040519081016040528093929190818152602001838380828437600081840152601f19601f82011690508083019250505050505050612aa2565b90506000811161233957600080fd5b6003811415612353576706f05b59d3b2000091505061237a565b600481141561236d57670429d069189e000091505061237a565b67016345785d8a00009150505b92915050565b61241882826040516024016123969291906151d9565b6040516020818303038152906040527f4b5c4277000000000000000000000000000000000000000000000000000000007bffffffffffffffffffffffffffffffffffffffffffffffffffffffff19166020820180517bffffffffffffffffffffffffffffffffffffffffffffffffffffffff838183161783525050505061336b565b5050565b60007f01ffc9a7000000000000000000000000000000000000000000000000000000007bffffffffffffffffffffffffffffffffffffffffffffffffffffffff1916827bffffffffffffffffffffffffffffffffffffffffffffffffffffffff1916149050919050565b61248f81613394565b6124ce576040517f08c379a00000000000000000000000000000000000000000000000000000000081526004016124c590614b73565b60405180910390fd5b50565b600033905090565b816004600083815260200190815260200160002060006101000a81548173ffffffffffffffffffffffffffffffffffffffff021916908373ffffffffffffffffffffffffffffffffffffffff160217905550808273ffffffffffffffffffffffffffffffffffffffff1661254c83611350565b73ffffffffffffffffffffffffffffffffffffffff167f8c5be1e5ebec7d5bd14f71427d1e84f3dd0314c0f7b2291e5b200ac8c7c3b92560405160405180910390a45050565b60008061259e83611350565b90508073ffffffffffffffffffffffffffffffffffffffff168473ffffffffffffffffffffffffffffffffffffffff1614806125e057506125df8185611b67565b5b8061261e57508373ffffffffffffffffffffffffffffffffffffffff1661260684610d02565b73ffffffffffffffffffffffffffffffffffffffff16145b91505092915050565b8273ffffffffffffffffffffffffffffffffffffffff1661264782611350565b73ffffffffffffffffffffffffffffffffffffffff161461269d576040517f08c379a000000000000000000000000000000000000000000000000000000000815260040161269490615282565b60405180910390fd5b600073ffffffffffffffffffffffffffffffffffffffff168273ffffffffffffffffffffffffffffffffffffffff16141561270d576040517f08c379a000000000000000000000000000000000000000000000000000000000815260040161270490615314565b60405180910390fd5b61271a83838360016133d5565b8273ffffffffffffffffffffffffffffffffffffffff1661273a82611350565b73ffffffffffffffffffffffffffffffffffffffff1614612790576040517f08c379a000000000000000000000000000000000000000000000000000000000815260040161278790615282565b60405180910390fd5b6004600082815260200190815260200160002060006101000a81549073ffffffffffffffffffffffffffffffffffffffff02191690556001600360008573ffffffffffffffffffffffffffffffffffffffff1673ffffffffffffffffffffffffffffffffffffffff168152602001908152602001600020600082825403925050819055506001600360008473ffffffffffffffffffffffffffffffffffffffff1673ffffffffffffffffffffffffffffffffffffffff16815260200190815260200160002060008282540192505081905550816002600083815260200190815260200160002060006101000a81548173ffffffffffffffffffffffffffffffffffffffff021916908373ffffffffffffffffffffffffffffffffffffffff160217905550808273ffffffffffffffffffffffffffffffffffffffff168473ffffffffffffffffffffffffffffffffffffffff167fddf252ad1be2c89b69c2b068fc378daa952ba7f163c4a11628f55a4df523b3ef60405160405180910390a461291c83838360016133db565b505050565b6129296124d1565b73ffffffffffffffffffffffffffffffffffffffff166129476114bb565b73ffffffffffffffffffffffffffffffffffffffff161461299d576040517f08c379a000000000000000000000000000000000000000000000000000000000815260040161299490615380565b60405180910390fd5b565b60006002600083815260200190815260200160002060009054906101000a900473ffffffffffffffffffffffffffffffffffffffff169050919050565b6000600760009054906101000a900473ffffffffffffffffffffffffffffffffffffffff16905081600760006101000a81548173ffffffffffffffffffffffffffffffffffffffff021916908373ffffffffffffffffffffffffffffffffffffffff1602179055508173ffffffffffffffffffffffffffffffffffffffff168173ffffffffffffffffffffffffffffffffffffffff167f8be0079c531659141344cd1fd0a4f28419497f9722a3daafe3b4186f6b6457e060405160405180910390a35050565b60008060008084519050600092505b80821015612c4c576000858381518110612ace57612acd615161565b5b602001015160f81c60f81b9050608060f81b817effffffffffffffffffffffffffffffffffffffffffffffffffffffffffffff19161015612b1d57600183612b1691906146e1565b9250612c38565b60e060f81b817effffffffffffffffffffffffffffffffffffffffffffffffffffffffffffff19161015612b5f57600283612b5891906146e1565b9250612c37565b60f060f81b817effffffffffffffffffffffffffffffffffffffffffffffffffffffffffffff19161015612ba157600383612b9a91906146e1565b9250612c36565b60f8801b817effffffffffffffffffffffffffffffffffffffffffffffffffffffffffffff19161015612be257600483612bdb91906146e1565b9250612c35565b60fc60f81b817effffffffffffffffffffffffffffffffffffffffffffffffffffffffffffff19161015612c2457600583612c1d91906146e1565b9250612c34565b600683612c3191906146e1565b92505b5b5b5b5b508280612c4490615190565b935050612ab1565b829350505050919050565b8173ffffffffffffffffffffffffffffffffffffffff168373ffffffffffffffffffffffffffffffffffffffff161415612cc6576040517f08c379a0000000000000000000000000000000000000000000000000000000008152600401612cbd906153ec565b60405180910390fd5b80600560008573ffffffffffffffffffffffffffffffffffffffff1673ffffffffffffffffffffffffffffffffffffffff16815260200190815260200160002060008473ffffffffffffffffffffffffffffffffffffffff1673ffffffffffffffffffffffffffffffffffffffff16815260200190815260200160002060006101000a81548160ff0219169083151502179055508173ffffffffffffffffffffffffffffffffffffffff168373ffffffffffffffffffffffffffffffffffffffff167f17307eab39ab6107e8899845ad3d59bd9653f200f220920489ca2b5937696c3183604051612db79190613bc0565b60405180910390a3505050565b612dcf848484612627565b612ddb848484846133e1565b612e1a576040517f08c379a0000000000000000000000000000000000000000000000000000000008152600401612e119061547e565b60405180910390fd5b50505050565b606060405180602001604052806000815250905090565b6060612e4282612486565b6000612e4c612e20565b90506000815111612e6c5760405180602001604052806000815250612e97565b80612e7684612ead565b604051602001612e87929190614c25565b6040516020818303038152906040525b915050919050565b600081600001549050919050565b606060006001612ebc84613569565b01905060008167ffffffffffffffff811115612edb57612eda613eab565b5b6040519080825280601f01601f191660200182016040528015612f0d5781602001600182028036833780820191505090505b509050600082602001820190505b600115612f7a578080600190039150507f3031323334353637383961626364656600000000000000000000000000000000600a86061a8153600a8581612f6457612f636145c4565b5b0494506000851415612f7557612f7a565b612f1b565b819350505050919050565b61302184848484604051602401612f9f949392919061549e565b6040516020818303038152906040527f8eafb02b000000000000000000000000000000000000000000000000000000007bffffffffffffffffffffffffffffffffffffffffffffffffffffffff19166020820180517bffffffffffffffffffffffffffffffffffffffffffffffffffffffff838183161783525050505061336b565b50505050565b606060008251141561304a57604051806020016040528060008152509050613186565b600060405180606001604052806040815260200161582e604091399050600060036002855161307991906146e1565b6130839190614622565b600461308f9190614653565b67ffffffffffffffff8111156130a8576130a7613eab565b5b6040519080825280601f01601f1916602001820160405280156130da5781602001600182028036833780820191505090505b509050600182016020820185865187015b80821015613146576003820191508151603f8160121c168501518453600184019350603f81600c1c168501518453600184019350603f8160061c168501518453600184019350603f81168501518453600184019350506130eb565b505060038651066001811461316257600281146131755761317d565b603d6001830353603d600283035361317d565b603d60018303535b50505080925050505b919050565b6132218160405160240161319f9190613c74565b6040516020818303038152906040527f41304fac000000000000000000000000000000000000000000000000000000007bffffffffffffffffffffffffffffffffffffffffffffffffffffffff19166020820180517bffffffffffffffffffffffffffffffffffffffffffffffffffffffff838183161783525050505061336b565b50565b61323e8282604051806020016040528060008152506136bc565b5050565b61324b82613394565b61328a576040517f08c379a00000000000000000000000000000000000000000000000000000000081526004016132819061556a565b60405180910390fd5b806006600084815260200190815260200160002090805190602001906132b1929190613958565b505050565b6001816000016000828254019250508190555050565b6133668383836040516024016132e49392919061558a565b6040516020818303038152906040527f5970e089000000000000000000000000000000000000000000000000000000007bffffffffffffffffffffffffffffffffffffffffffffffffffffffff19166020820180517bffffffffffffffffffffffffffffffffffffffffffffffffffffffff838183161783525050505061336b565b505050565b60008151905060006a636f6e736f6c652e6c6f679050602083016000808483855afa5050505050565b60008073ffffffffffffffffffffffffffffffffffffffff166133b68361299f565b73ffffffffffffffffffffffffffffffffffffffff1614159050919050565b50505050565b50505050565b60006134028473ffffffffffffffffffffffffffffffffffffffff16613717565b1561355c578373ffffffffffffffffffffffffffffffffffffffff1663150b7a0261342b6124d1565b8786866040518563ffffffff1660e01b815260040161344d9493929190615624565b6020604051808303816000875af192505050801561348957506040513d601f19601f820116820180604052508101906134869190615685565b60015b61350c573d80600081146134b9576040519150601f19603f3d011682016040523d82523d6000602084013e6134be565b606091505b50600081511415613504576040517f08c379a00000000000000000000000000000000000000000000000000000000081526004016134fb9061547e565b60405180910390fd5b805181602001fd5b63150b7a0260e01b7bffffffffffffffffffffffffffffffffffffffffffffffffffffffff1916817bffffffffffffffffffffffffffffffffffffffffffffffffffffffff191614915050613561565b600190505b949350505050565b600080600090507a184f03e93ff9f4daa797ed6e38ed64bf6a1f01000000000000000083106135c7577a184f03e93ff9f4daa797ed6e38ed64bf6a1f01000000000000000083816135bd576135bc6145c4565b5b0492506040810190505b6d04ee2d6d415b85acef81000000008310613604576d04ee2d6d415b85acef810000000083816135fa576135f96145c4565b5b0492506020810190505b662386f26fc10000831061363357662386f26fc100008381613629576136286145c4565b5b0492506010810190505b6305f5e100831061365c576305f5e1008381613652576136516145c4565b5b0492506008810190505b6127108310613681576127108381613677576136766145c4565b5b0492506004810190505b606483106136a4576064838161369a576136996145c4565b5b0492506002810190505b600a83106136b3576001810190505b80915050919050565b6136c6838361373a565b6136d360008484846133e1565b613712576040517f08c379a00000000000000000000000000000000000000000000000000000000081526004016137099061547e565b60405180910390fd5b505050565b6000808273ffffffffffffffffffffffffffffffffffffffff163b119050919050565b600073ffffffffffffffffffffffffffffffffffffffff168273ffffffffffffffffffffffffffffffffffffffff1614156137aa576040517f08c379a00000000000000000000000000000000000000000000000000000000081526004016137a1906156fe565b60405180910390fd5b6137b381613394565b156137f3576040517f08c379a00000000000000000000000000000000000000000000000000000000081526004016137ea9061576a565b60405180910390fd5b6138016000838360016133d5565b61380a81613394565b1561384a576040517f08c379a00000000000000000000000000000000000000000000000000000000081526004016138419061576a565b60405180910390fd5b6001600360008473ffffffffffffffffffffffffffffffffffffffff1673ffffffffffffffffffffffffffffffffffffffff16815260200190815260200160002060008282540192505081905550816002600083815260200190815260200160002060006101000a81548173ffffffffffffffffffffffffffffffffffffffff021916908373ffffffffffffffffffffffffffffffffffffffff160217905550808273ffffffffffffffffffffffffffffffffffffffff16600073ffffffffffffffffffffffffffffffffffffffff167fddf252ad1be2c89b69c2b068fc378daa952ba7f163c4a11628f55a4df523b3ef60405160405180910390a46139546000838360016133db565b5050565b828054613964906147fc565b90600052602060002090601f01602090048101928261398657600085556139cd565b82601f1061399f57805160ff19168380011785556139cd565b828001600101855582156139cd579182015b828111156139cc5782518255916020019190600101906139b1565b5b5090506139da9190613a64565b5090565b8280546139ea906147fc565b90600052602060002090601f016020900481019282613a0c5760008555613a53565b82601f10613a2557803560ff1916838001178555613a53565b82800160010185558215613a53579182015b82811115613a52578235825591602001919060010190613a37565b5b509050613a609190613a64565b5090565b5b80821115613a7d576000816000905550600101613a65565b5090565b6000604051905090565b600080fd5b600080fd5b600073ffffffffffffffffffffffffffffffffffffffff82169050919050565b6000613ac082613a95565b9050919050565b613ad081613ab5565b8114613adb57600080fd5b50565b600081359050613aed81613ac7565b92915050565b600060208284031215613b0957613b08613a8b565b5b6000613b1784828501613ade565b91505092915050565b60007fffffffff0000000000000000000000000000000000000000000000000000000082169050919050565b613b5581613b20565b8114613b6057600080fd5b50565b600081359050613b7281613b4c565b92915050565b600060208284031215613b8e57613b8d613a8b565b5b6000613b9c84828501613b63565b91505092915050565b60008115159050919050565b613bba81613ba5565b82525050565b6000602082019050613bd56000830184613bb1565b92915050565b600081519050919050565b600082825260208201905092915050565b60005b83811015613c15578082015181840152602081019050613bfa565b83811115613c24576000848401525b50505050565b6000601f19601f8301169050919050565b6000613c4682613bdb565b613c508185613be6565b9350613c60818560208601613bf7565b613c6981613c2a565b840191505092915050565b60006020820190508181036000830152613c8e8184613c3b565b905092915050565b6000819050919050565b613ca981613c96565b8114613cb457600080fd5b50565b600081359050613cc681613ca0565b92915050565b600060208284031215613ce257613ce1613a8b565b5b6000613cf084828501613cb7565b91505092915050565b6000613d0482613a95565b9050919050565b613d1481613cf9565b82525050565b6000602082019050613d2f6000830184613d0b565b92915050565b613d3e81613cf9565b8114613d4957600080fd5b50565b600081359050613d5b81613d35565b92915050565b60008060408385031215613d7857613d77613a8b565b5b6000613d8685828601613d4c565b9250506020613d9785828601613cb7565b9150509250929050565b600080fd5b600080fd5b600080fd5b60008083601f840112613dc657613dc5613da1565b5b8235905067ffffffffffffffff811115613de357613de2613da6565b5b602083019150836001820283011115613dff57613dfe613dab565b5b9250929050565b60008060208385031215613e1d57613e1c613a8b565b5b600083013567ffffffffffffffff811115613e3b57613e3a613a90565b5b613e4785828601613db0565b92509250509250929050565b600080600060608486031215613e6c57613e6b613a8b565b5b6000613e7a86828701613d4c565b9350506020613e8b86828701613d4c565b9250506040613e9c86828701613cb7565b9150509250925092565b600080fd5b7f4e487b7100000000000000000000000000000000000000000000000000000000600052604160045260246000fd5b613ee382613c2a565b810181811067ffffffffffffffff82111715613f0257613f01613eab565b5b80604052505050565b6000613f15613a81565b9050613f218282613eda565b919050565b600067ffffffffffffffff821115613f4157613f40613eab565b5b613f4a82613c2a565b9050602081019050919050565b82818337600083830152505050565b6000613f79613f7484613f26565b613f0b565b905082815260208101848484011115613f9557613f94613ea6565b5b613fa0848285613f57565b509392505050565b600082601f830112613fbd57613fbc613da1565b5b8135613fcd848260208601613f66565b91505092915050565b600060208284031215613fec57613feb613a8b565b5b600082013567ffffffffffffffff81111561400a57614009613a90565b5b61401684828501613fa8565b91505092915050565b60006020828403121561403557614034613a8b565b5b600061404384828501613d4c565b91505092915050565b61405581613c96565b82525050565b6000602082019050614070600083018461404c565b92915050565b60008060006060848603121561408f5761408e613a8b565b5b600084013567ffffffffffffffff8111156140ad576140ac613a90565b5b6140b986828701613fa8565b935050602084013567ffffffffffffffff8111156140da576140d9613a90565b5b6140e686828701613fa8565b925050604084013567ffffffffffffffff81111561410757614106613a90565b5b61411386828701613fa8565b9150509250925092565b61412681613ba5565b811461413157600080fd5b50565b6000813590506141438161411d565b92915050565b600080604083850312156141605761415f613a8b565b5b600061416e85828601613d4c565b925050602061417f85828601614134565b9150509250929050565b600081519050919050565b600082825260208201905092915050565b6000819050602082019050919050565b600082825260208201905092915050565b60006141d182613bdb565b6141db81856141b5565b93506141eb818560208601613bf7565b6141f481613c2a565b840191505092915050565b6000604083016000830151848203600086015261421c82826141c6565b9150506020830151848203602086015261423682826141c6565b9150508091505092915050565b600061424f83836141ff565b905092915050565b6000602082019050919050565b600061426f82614189565b6142798185614194565b93508360208202850161428b856141a5565b8060005b858110156142c757848403895281516142a88582614243565b94506142b383614257565b925060208a0199505060018101905061428f565b50829750879550505050505092915050565b600060208201905081810360008301526142f38184614264565b905092915050565b600067ffffffffffffffff82111561431657614315613eab565b5b61431f82613c2a565b9050602081019050919050565b600061433f61433a846142fb565b613f0b565b90508281526020810184848401111561435b5761435a613ea6565b5b614366848285613f57565b509392505050565b600082601f83011261438357614382613da1565b5b813561439384826020860161432c565b91505092915050565b600080600080608085870312156143b6576143b5613a8b565b5b60006143c487828801613d4c565b94505060206143d587828801613d4c565b93505060406143e687828801613cb7565b925050606085013567ffffffffffffffff81111561440757614406613a90565b5b6144138782880161436e565b91505092959194509250565b6000806000806040858703121561443957614438613a8b565b5b600085013567ffffffffffffffff81111561445757614456613a90565b5b61446387828801613db0565b9450945050602085013567ffffffffffffffff81111561448657614485613a90565b5b61449287828801613db0565b925092505092959194509250565b600080604083850312156144b7576144b6613a8b565b5b60006144c585828601613d4c565b92505060206144d685828601613d4c565b9150509250929050565b600081519050919050565b600082825260208201905092915050565b6000819050602082019050919050565b600061451883836141c6565b905092915050565b6000602082019050919050565b6000614538826144e0565b61454281856144eb565b935083602082028501614554856144fc565b8060005b858110156145905784840389528151614571858261450c565b945061457c83614520565b925060208a01995050600181019050614558565b50829750879550505050505092915050565b600060208201905081810360008301526145bc818461452d565b905092915050565b7f4e487b7100000000000000000000000000000000000000000000000000000000600052601260045260246000fd5b7f4e487b7100000000000000000000000000000000000000000000000000000000600052601160045260246000fd5b600061462d82613c96565b915061463883613c96565b925082614648576146476145c4565b5b828204905092915050565b600061465e82613c96565b915061466983613c96565b9250817fffffffffffffffffffffffffffffffffffffffffffffffffffffffffffffffff04831182151516156146a2576146a16145f3565b5b828202905092915050565b60006146b882613c96565b91506146c383613c96565b9250828210156146d6576146d56145f3565b5b828203905092915050565b60006146ec82613c96565b91506146f783613c96565b9250827fffffffffffffffffffffffffffffffffffffffffffffffffffffffffffffffff0382111561472c5761472b6145f3565b5b828201905092915050565b6000819050919050565b600061475c61475761475284613a95565b614737565b613a95565b9050919050565b600061476e82614741565b9050919050565b600061478082614763565b9050919050565b61479081614775565b82525050565b60006060820190506147ab6000830186613d0b565b6147b86020830185614787565b6147c5604083018461404c565b949350505050565b7f4e487b7100000000000000000000000000000000000000000000000000000000600052602260045260246000fd5b6000600282049050600182168061481457607f821691505b60208210811415614828576148276147cd565b5b50919050565b7f4552433732313a20617070726f76616c20746f2063757272656e74206f776e6560008201527f7200000000000000000000000000000000000000000000000000000000000000602082015250565b600061488a602183613be6565b91506148958261482e565b604082019050919050565b600060208201905081810360008301526148b98161487d565b9050919050565b7f4552433732313a20617070726f76652063616c6c6572206973206e6f7420746f60008201527f6b656e206f776e6572206f7220617070726f76656420666f7220616c6c000000602082015250565b600061491c603d83613be6565b9150614927826148c0565b604082019050919050565b6000602082019050818103600083015261494b8161490f565b9050919050565b600081905092915050565b60006149698385614952565b9350614976838584613f57565b82840190509392505050565b600061498f82848661495d565b91508190509392505050565b7f4552433732313a2063616c6c6572206973206e6f7420746f6b656e206f776e6560008201527f72206f7220617070726f76656400000000000000000000000000000000000000602082015250565b60006149f7602d83613be6565b9150614a028261499b565b604082019050919050565b60006020820190508181036000830152614a26816149ea565b9050919050565b6000614a3882613bdb565b614a428185614952565b9350614a52818560208601613bf7565b80840191505092915050565b6000614a6a8284614a2d565b915081905092915050565b600081905092915050565b50565b6000614a90600083614a75565b9150614a9b82614a80565b600082019050919050565b6000614ab182614a83565b9150819050919050565b7f4661696c656420746f207769746864726177204d617469630000000000000000600082015250565b6000614af1601883613be6565b9150614afc82614abb565b602082019050919050565b60006020820190508181036000830152614b2081614ae4565b9050919050565b7f4552433732313a20696e76616c696420746f6b656e2049440000000000000000600082015250565b6000614b5d601883613be6565b9150614b6882614b27565b602082019050919050565b60006020820190508181036000830152614b8c81614b50565b9050919050565b7f4552433732313a2061646472657373207a65726f206973206e6f74206120766160008201527f6c6964206f776e65720000000000000000000000000000000000000000000000602082015250565b6000614bef602983613be6565b9150614bfa82614b93565b604082019050919050565b60006020820190508181036000830152614c1e81614be2565b9050919050565b6000614c318285614a2d565b9150614c3d8284614a2d565b91508190509392505050565b6000614c558385613be6565b9350614c62838584613f57565b614c6b83613c2a565b840190509392505050565b60006020820190508181036000830152614c91818486614c49565b90509392505050565b7f4e6f7420656e6f756768204d6174696320706169640000000000000000000000600082015250565b6000614cd0601583613be6565b9150614cdb82614c9a565b602082019050919050565b60006020820190508181036000830152614cff81614cc3565b9050919050565b7f2e00000000000000000000000000000000000000000000000000000000000000600082015250565b6000614d3c600183614952565b9150614d4782614d06565b600182019050919050565b60008190508160005260206000209050919050565b60008154614d74816147fc565b614d7e8186614952565b94506001821660008114614d995760018114614daa57614ddd565b60ff19831686528186019350614ddd565b614db385614d52565b60005b83811015614dd557815481890152600182019150602081019050614db6565b838801955050505b50505092915050565b6000614df382858761495d565b9150614dfe82614d2f565b9150614e0a8284614d67565b9150819050949350505050565b6000614e238286614d67565b9150614e2f8285614a2d565b9150614e3b8284614d67565b9150819050949350505050565b7f7b226e616d65223a202200000000000000000000000000000000000000000000600082015250565b6000614e7e600a83614952565b9150614e8982614e48565b600a82019050919050565b7f222c20226465736372697074696f6e223a20224c696e6b4d6520646f6d61696e60008201527f2e222c2022696d616765223a2022646174613a696d6167652f7376672b786d6c60208201527f3b6261736536342c000000000000000000000000000000000000000000000000604082015250565b6000614f16604883614952565b9150614f2182614e94565b604882019050919050565b7f222c20226c656e677468223a2022000000000000000000000000000000000000600082015250565b6000614f62600e83614952565b9150614f6d82614f2c565b600e82019050919050565b7f227d000000000000000000000000000000000000000000000000000000000000600082015250565b6000614fae600283614952565b9150614fb982614f78565b600282019050919050565b6000614fcf82614e71565b9150614fdb8286614a2d565b9150614fe682614f09565b9150614ff28285614a2d565b9150614ffd82614f55565b91506150098284614a2d565b915061501482614fa1565b9150819050949350505050565b7f646174613a6170706c69636174696f6e2f6a736f6e3b6261736536342c000000600082015250565b6000615057601d83614952565b915061506282615021565b601d82019050919050565b60006150788261504a565b91506150848284614a2d565b915081905092915050565b60006060820190506150a46000830187613d0b565b81810360208301526150b7818587614c49565b90506150c6604083018461404c565b95945050505050565b7f4f776e61626c653a206e6577206f776e657220697320746865207a65726f206160008201527f6464726573730000000000000000000000000000000000000000000000000000602082015250565b600061512b602683613be6565b9150615136826150cf565b604082019050919050565b6000602082019050818103600083015261515a8161511e565b9050919050565b7f4e487b7100000000000000000000000000000000000000000000000000000000600052603260045260246000fd5b600061519b82613c96565b91507fffffffffffffffffffffffffffffffffffffffffffffffffffffffffffffffff8214156151ce576151cd6145f3565b5b600182019050919050565b600060408201905081810360008301526151f38185613c3b565b905081810360208301526152078184613c3b565b90509392505050565b7f4552433732313a207472616e736665722066726f6d20696e636f72726563742060008201527f6f776e6572000000000000000000000000000000000000000000000000000000602082015250565b600061526c602583613be6565b915061527782615210565b604082019050919050565b6000602082019050818103600083015261529b8161525f565b9050919050565b7f4552433732313a207472616e7366657220746f20746865207a65726f2061646460008201527f7265737300000000000000000000000000000000000000000000000000000000602082015250565b60006152fe602483613be6565b9150615309826152a2565b604082019050919050565b6000602082019050818103600083015261532d816152f1565b9050919050565b7f4f776e61626c653a2063616c6c6572206973206e6f7420746865206f776e6572600082015250565b600061536a602083613be6565b915061537582615334565b602082019050919050565b600060208201905081810360008301526153998161535d565b9050919050565b7f4552433732313a20617070726f766520746f2063616c6c657200000000000000600082015250565b60006153d6601983613be6565b91506153e1826153a0565b602082019050919050565b60006020820190508181036000830152615405816153c9565b9050919050565b7f4552433732313a207472616e7366657220746f206e6f6e20455243373231526560008201527f63656976657220696d706c656d656e7465720000000000000000000000000000602082015250565b6000615468603283613be6565b91506154738261540c565b604082019050919050565b600060208201905081810360008301526154978161545b565b9050919050565b600060808201905081810360008301526154b88187613c3b565b905081810360208301526154cc8186613c3b565b905081810360408301526154e08185613c3b565b90506154ef606083018461404c565b95945050505050565b7f45524337323155524953746f726167653a2055524920736574206f66206e6f6e60008201527f6578697374656e7420746f6b656e000000000000000000000000000000000000602082015250565b6000615554602e83613be6565b915061555f826154f8565b604082019050919050565b6000602082019050818103600083015261558381615547565b9050919050565b600060608201905081810360008301526155a48186613c3b565b90506155b3602083018561404c565b81810360408301526155c58184613c3b565b9050949350505050565b600081519050919050565b600082825260208201905092915050565b60006155f6826155cf565b61560081856155da565b9350615610818560208601613bf7565b61561981613c2a565b840191505092915050565b60006080820190506156396000830187613d0b565b6156466020830186613d0b565b615653604083018561404c565b818103606083015261566581846155eb565b905095945050505050565b60008151905061567f81613b4c565b92915050565b60006020828403121561569b5761569a613a8b565b5b60006156a984828501615670565b91505092915050565b7f4552433732313a206d696e7420746f20746865207a65726f2061646472657373600082015250565b60006156e8602083613be6565b91506156f3826156b2565b602082019050919050565b60006020820190508181036000830152615717816156db565b9050919050565b7f4552433732313a20746f6b656e20616c7265616479206d696e74656400000000600082015250565b6000615754601c83613be6565b915061575f8261571e565b602082019050919050565b6000602082019050818103600083015261578381615747565b905091905056fe0a2d2d2d2d2d2d2d2d2d2d2d2d2d2d2d2d2d2d2d2d2d2d2d2d2d2d2d2d2d2d2d2d2d2d2d2d2d2d2d2d2d2d2d2d2d2d2d2d2d2d2d2d2d2d2d2d5265676973746572696e672025732e2573206f6e2074686520636f6e7472616374207769746820746f6b656e49442025642d2d2d2d2d2d2d2d2d2d2d2d2d2d2d2d2d2d2d2d2d2d2d2d2d2d2d2d2d2d2d2d2d2d2d2d2d2d2d2d2d2d2d2d2d2d2d2d2d2d2d2d2d2d2d2d0a4142434445464748494a4b4c4d4e4f505152535455565758595a6162636465666768696a6b6c6d6e6f707172737475767778797a303132333435363738392b2fa2646970667358221220f19335597937923749ae33ed16ab36286d1b5acd49e38602e4529786a5f9ab2e64736f6c634300080a00333c73766720786d6c6e733d22687474703a2f2f7777772e77332e6f72672f323030302f737667222077696474683d2232373022206865696768743d22323730222066696c6c3d226e6f6e65223e3c706174682066696c6c3d2275726c282342292220643d224d302030683237307632373048307a222f3e3c646566733e3c66696c7465722069643d22412220636f6c6f722d696e746572706f6c6174696f6e2d66696c746572733d2273524742222066696c746572556e6974733d227573657253706163654f6e55736522206865696768743d22323730222077696474683d22323730223e3c666544726f70536861646f772064783d2230222064793d22312220737464446576696174696f6e3d22322220666c6f6f642d6f7061636974793d222e323235222077696474683d223230302522206865696768743d2232303025222f3e3c2f66696c7465723e3c2f646566733e3c7061746820643d224d37322e3836332034322e393439632d2e3636382d2e3338372d312e3432362d2e35392d322e3139372d2e3539732d312e3532392e3230342d322e3139372e35396c2d31302e30383120362e3033322d362e383520332e3933342d31302e30383120362e303332632d2e3636382e3338372d312e3432362e35392d322e3139372e3539732d312e3532392d2e3230342d322e3139372d2e35396c2d382e3031332d342e37323161342e353220342e35322030203020312d312e3538392d312e363136632d2e3338342d2e3636352d2e3539342d312e3431382d2e3630382d322e313837762d392e3331632d2e3031332d2e3737352e3138352d312e3533382e3537322d322e32303861342e323520342e323520302030203120312e3632352d312e3539356c372e3838342d342e3539632e3636382d2e33383720312e3432362d2e353920322e3139372d2e353973312e3532392e32303420322e3139372e35396c372e38383420342e353961342e353220342e353220302030203120312e35383920312e363136632e3338342e3636352e35393420312e3431382e36303820322e31383776362e3033326c362e38352d342e303635762d362e303332632e3031332d2e3737352d2e3138352d312e3533382d2e3537322d322e32303861342e323520342e32352030203020302d312e3632352d312e3539354c34312e3435362032342e3539632d2e3636382d2e3338372d312e3432362d2e35392d322e3139372d2e3539732d312e3532392e3230342d322e3139372e35396c2d31342e38363420382e36353561342e323520342e32352030203020302d312e36323520312e353935632d2e3338372e36372d2e35383520312e3433342d2e35373220322e3230387631372e343431632d2e3031332e3737352e31383520312e3533382e35373220322e32303861342e323520342e323520302030203020312e36323520312e3539356c31342e38363420382e363535632e3636382e33383720312e3432362e353920322e3139372e353973312e3532392d2e32303420322e3139372d2e35396c31302e3038312d352e39303120362e38352d342e3036352031302e3038312d352e393031632e3636382d2e33383720312e3432362d2e353920322e3139372d2e353973312e3532392e32303420322e3139372e35396c372e38383420342e353961342e353220342e353220302030203120312e35383920312e363136632e3338342e3636352e35393420312e3431382e36303820322e31383776392e333131632e3031332e3737352d2e31383520312e3533382d2e35373220322e32303861342e323520342e32352030203020312d312e36323520312e3539356c2d372e38383420342e373231632d2e3636382e3338372d312e3432362e35392d322e3139372e3539732d312e3532392d2e3230342d322e3139372d2e35396c2d372e3838342d342e353961342e353220342e35322030203020312d312e3538392d312e363136632d2e3338352d2e3636352d2e3539342d312e3431382d2e3630382d322e313837762d362e3033326c2d362e383520342e30363576362e303332632d2e3031332e3737352e31383520312e3533382e35373220322e32303861342e323520342e323520302030203020312e36323520312e3539356c31342e38363420382e363535632e3636382e33383720312e3432362e353920322e3139372e353973312e3532392d2e32303420322e3139372d2e35396c31342e3836342d382e363535632e3635372d2e33393420312e3230342d2e393520312e3538392d312e363136732e3539342d312e3431382e3630392d322e3138375635352e353338632e3031332d2e3737352d2e3138352d312e3533382d2e3537322d322e32303861342e323520342e32352030203020302d312e3632352d312e3539356c2d31342e3939332d382e3738367a222066696c6c3d2223666666222f3e3c646566733e3c6c696e6561724772616469656e742069643d2242222078313d2230222079313d2230222078323d22323730222079323d2232373022206772616469656e74556e6974733d227573657253706163654f6e557365223e3c73746f702073746f702d636f6c6f723d2223636235656565222f3e3c73746f70206f66667365743d2231222073746f702d636f6c6f723d2223306364376534222073746f702d6f7061636974793d222e3939222f3e3c2f6c696e6561724772616469656e743e3c2f646566733e3c7465787420783d2233322e352220793d223233312220666f6e742d73697a653d223237222066696c6c3d2223666666222066696c7465723d2275726c282341292220666f6e742d66616d696c793d22506c7573204a616b617274612053616e732c44656a6156752053616e732c4e6f746f20436f6c6f7220456d6f6a692c4170706c6520436f6c6f7220456d6f6a692c73616e732d73657269662220666f6e742d7765696768743d22626f6c64223e",
  "linkReferences": {},
  "deployedLinkReferences": {}
}